:020000040800F2
:10000000C84B002035E8000895E5000897E5000892
:1000100099E500089BE500089DE500080000000048
:100020000000000000000000000000009FE5000844
:10003000A1E5000800000000A3E50008A5E5000810
:100040004DE8000851E8000855E80008A9E5000857
:1000500059E800085DE8000861E8000865E8000864
:1000600069E800086DE8000871E8000875E8000814
:10007000D9E50008DFE50008E5E50008EBE5000844
:10008000F1E50008F7E5000879E800087DE80008D8
:1000900081E8000885E8000889E800088DE8000884
:1000A00091E8000895E8000899E800089DE8000834
:1000B000FDE50008A1E80008A5E80008A9E8000897
:1000C000ADE80008B1E80008B5E80008B9E80008A4
:1000D000BDE8000803E600081FE6000853E6000834
:1000E000C1E80008C5E80008C9E8000800000000F1
:1000F0000000000000000000000000000000000000
:1001000000000000000000000000000000000000EF
:10011000000000003F801180030006000C00180062
:10012000300040000000000000000000000000005F
:10013000000000003F800D800D801B001B0036007A
:100140004C00100000000000000000000000000053
:1001500000000000600030003000300030003080CF
:100160003F001C0000000000000000000000000034
:10017000000002007F00300030003000300030808E
:100180003F001C0000000000000000000000000014
:10019000000000007F803600360036003600364012
:1001A0003F801B0000000000000000000000000075
:1001B000000000007F00230002007E00300030803D
:1001C0003F001C00000000000000000000000000D4
:1001D000000000007F0033003300330033003200A2
:1001E0003F002000000000000000000000000000B0
:1001F000000006006300330033003F00330033008B
:100200003F0022000000000000000000000000008D
:1002100000000000DB006D806D807F806D806D8050
:100220007F80490000000000000000000000000086
:100230000000040006000600060006000F001980FA
:1002400031804000000000000000000000000000BD
:100250000000000012001B001B001B003F006D800F
:100260008D80100000000000000000000000000071
:10027000000000001C003E006300630063003E00BD
:100280001C00000000000000000000000000000052
:10029000000000003F801180030006000F0019805D
:1002A000318040000000000000000000000000005D
:1002B000000000007F802D800D801B003F006D80BE
:1002C000D9801000000000000000000000000000C5
:1002D0000C00060000003F00130006000C001F0089
:1002E000330040000000000000000000000000009B
:1002F000000000003F8003007F0026000C00180073
:10030000300040000000000000000000000000007D
:10031000000002007F00300032003F0030003080DB
:100320003F001C0000000000000000000000000072
:10033000000002007F00040026003600044009800F
:100340007F0020000000000000000000000000000E
:1003500018000C0005007F802C001E0033003300C5
:100360001E0000000000000000000000000000006F
:10037000000000000000000000000000000000007D
:10038000000000000000000000000000000000006D
:1003900000001FF00C300030003000300020004022
:1003A000000000000000000000000000000000004D
:1003B00000003EF806180618061804100820000071
:1003C000000000000000000000000000000000002D
:1003D000000018000C000C000C1007F800000000D2
:1003E000000000000000000000000000000000000D
:1003F00000203FF01800180018200FF00000000047
:1004000000000000000000000000000000000000EC
:1004100000003FF818C018C019D00E780000000086
:1004200000000000000000000000000000000000CC
:1004300000000FF000301FE00C000C2007F000005F
:1004400000000000000000000000000000000000AC
:1004500000001FF00C700C600C400FE00800000062
:10046000000000000000000000000000000000008C
:10047000006018300C300FF00C300FF00820000036
:10048000000000000000000000000000000000006C
:100490000000333019981FF819981FF81110000048
:1004A000000000000000000000000000000000004C
:1004B000010001800180030007F00C3830000000CB
:1004C000000000000000000000000000000000002C
:1004D00002400360036006C00FF01B3824000000D8
:1004E000000000000000000000000000000000000C
:1004F000000007C00C600C600C6007C0000000002A
:1005000000000000000000000000000000000000EB
:1005100000000FE001C0038006F00C38100000005E
:1005200000000000000000000000000000000000CB
:1005300000001FF00B6006C00FE01B382400000015
:1005400000000000000000000000000000000000AB
:10055000030001801FF001E0038006F0183820003E
:10056000000000000000000000000000000000008B
:1005700000001FF0083000701FB00C300020004059
:10058000000000000000000000000000000000006B
:1005900000201FF00C000FF00C000C2007F00000F2
:1005A000000000000000000000000000000000004B
:1005B00000201FF80C60066006C01FF8080000004D
:1005C000000000000000000000000000000000002B
:1005D000030001901FF80BC00660066003C0000016
:1005E000000000000000000000000000000000000B
:1005F00000000000000000000000000000000000FB
:1006000000000000000000000000000000000000EA
:100610001FF0083000300020004000000000000003
:1006200000000000000000000000000000000000CA
:100630001FF8031803180210042000000000000037
:1006400000000000000000000000000000000000AA
:1006500018000C000C2007F0000000000000000053
:10066000000000000000000000000000000000206A
:100670001FF00C000C0007F000000000000000005C
:10068000000000000000000000000000000000006A
:100690003FF0198019800EF00000000000000000FB
:1006A000000000000000000000000000000000004A
:1006B0000FF000301FE00C0007F000000000000009
:1006C000000000000000000000000000000000002A
:1006D0001FF00C700C600FE008000000000000002C
:1006E000000000000000000000000000000000000A
:1006F00018C00C600FE00C600FE00000000000006C
:1007000000000000000000000000000000000000E9
:100710001B600DB00FF00DB00FF0000000000000E6
:1007200000000000000000000000000000000100C8
:100730000180018003F0063818000000000000006E
:100740000000000000000000000000000000044065
:10075000066006600FF819982200000000000000F3
:100760000000000000000000000000000000000089
:1007700003C006600660066003C0000000000000C1
:100780000000000000000000000000000000000069
:100790000FE003C007700C383000000000000000BC
:1007A0000000000000000000000000000000000049
:1007B0001FF806600FF8199C2200000000000000DE
:1007C0000000000000000000000000000000030026
:1007D00001801FF001C00F78380000000000000009
:1007E0000000000000000000000000000000000009
:1007F0000FF0043000F00F30042000400000000033
:1008000000000000000000000000000000000000E8
:100810001FF00C000FF00C0007F0000000000000BB
:1008200000000000000000000000000000000010B8
:100830001FF8066006601FF80800000000000000B6
:1008400000000000000000000000000000000300A5
:1008500001A00FF003C0066003C00000000000000C
:100860000000000000000000000000000000000088
:100870000000000000000000000000000000000078
:100880000000000000000000000000000000000068
:10089000000000003F801180018001800100020003
:1008A0000000000000000000000000000000000048
:1008B000000000007F8019801980110022000000D4
:1008C0000000000000000000000000000000000028
:1008D000000000006000300031001F8000000000B8
:1008E0000000000000000000000000000000000008
:1008F000000001007F80300031001F8000000000F8
:1009000000000000000000000000000000000000E7
:1009100000000000FF8066006E007780000000008D
:1009200000000000000000000000000000000000C7
:10093000000000003F8001807F0030001F80000029
:1009400000000000000000000000000000000000A7
:10095000000000007F80318031003F002000000057
:100960000000000000000000000000000000000087
:100970000000630031803F8031803F002000000094
:100980000000000000000000000000000000000067
:100990000000DB006D807F806D807F0040000000E4
:1009A0000000000000000000000000000000000047
:1009B0000400060006000C001F803180400000008B
:1009C0000000000000000000000000000000000027
:1009D000000012001B001B003F806D809000000093
:1009E0000000000000000000000000000000000007
:1009F000000000001F00318031801F000000000057
:100A000000000000000000000000000000000000E6
:100A1000000000003F000C001F80318040000000FB
:100A200000000000000000000000000000000000C6
:100A3000000000003F801B003F804D801000000040
:100A400000000000000000000000000000000000A6
:100A500000000C0004003F000E001B8031804000AD
:100A60000000000000000000000000000000000086
:100A7000000000003F8001803F80018001000200F3
:100A80000000000000000000000000000000000066
:100A9000000001007F8030003F8030001F80000098
:100AA0000000000000000000000000000000000046
:100AB000000002007F002400360014007F000000C8
:100AC0000000000000000000000000000000000026
:100AD00000001C000C007F801E0033001E00000080
:100AE0000000000000000000000000000000000006
:100AF00000000000000000000000000000000000F6
:100B000000000000000000000000000000000000E5
:100B100000003F8001800180010002000000000011
:100B200000000000000000000000000000000000C5
:100B300000007F8019801980110022000000000051
:100B400000000000000000000000000000000000A5
:100B500000003000180019000F80000000000000A5
:100B60000000000000000000000000000000000085
:100B700001003F80180019000F80000000000000F5
:100B80000000000000000000000000000000000065
:100B900000007F80360036001B800000000000004F
:100BA0000000000000000000000000000000000045
:100BB0001F8001803F0018000F800000000000002F
:100BC0000000000000000000000000000000000025
:100BD00000003F80198019001F0010000000000075
:100BE0000000000000000000000000000000000005
:100BF000330019801F8019801F00100000000000C2
:100C000000000000000000000000000000000000E4
:100C1000DB006D807F806D807F0048000000000059
:100C200000000000000000000000000000000000C4
:100C30000C000C000C001F80318040000000000000
:100C400000000000000000000000000000000000A4
:100C500012001B001B001F802D80480000000000B8
:100C60000000000000000000000000000000000084
:100C700000001E00330033001E00000000000000D2
:100C80000000000000000000000000000000000064
:100C90001F00030006000F801980200000000000E4
:100CA0000000000000000000000000000000000044
:100CB0003F800D801B003FC06CC0000000000000A2
:100CC00000000000000000000000000000000C0018
:100CD00006003F8004000F801980600000000000C3
:100CE0000000000000000000000000000000000004
:100CF00000001F8001801F800180010002000000B1
:100D000000000000000000000000000000000000E3
:100D100000003F8018001F8018000F8000000000B6
:100D200000000000000000000000000000000000C3
:100D30003F8012000B000A003F80100000000000FE
:100D400000000000000000000000000000000000A3
:100D50000C0006003F800E001B000E00000000008B
:100D60000000000000000000000000000000000083
:100D70000000000000000000000000000000000073
:100D80000000000000000000000000000000000063
:100D900000003F00030006000C0018003000400077
:100DA0000000000000000000000000000000000043
:100DB00000003F800D801B0036006C000800000022
:100DC0000000000000000000000000000000000023
:100DD000000060003000300031003E0018000000CC
:100DE0000000000000000000000000000000000003
:100DF00002007F003000300030803F001C00000007
:100E000000000000000000000000000000000000E2
:100E100000007F803600360036403F801B00000017
:100E200000000000000000000000000000000000C2
:100E300000003F0003007E00300031801E000000F3
:100E400000000000000000000000000000000000A2
:100E500000007F003300330032003E00200000001D
:100E60000000000000000000000000000000000082
:100E7000660033003F00330033003E0020000000D6
:100E80000000000000000000000000000000000062
:100E90000000DB006D807F806D807F0044000000DB
:100EA0000000000000000000000000000000000042
:100EB0000400060006000C001E0033004100000084
:100EC0000000000000000000000000000000000022
:100ED000020013001B001B003F004D8010000000AB
:100EE0000000000000000000000000000000000002
:100EF00000001E003300330033001E00000000001D
:100F000000000000000000000000000000000000E1
:100F100000003F0006000C001E00330040000000EF
:100F200000000000000000000000000000000000C1
:100F300000003F8009801B003F004D801000000032
:100F400000000000000000000000000000000000A1
:100F500018000C003E000C001E0033004000000092
:100F60000000000000000000000000000000000081
:100F700000003F0003007E000C001800300040001D
:100F80000000000000000000000000000000000061
:100F900000007F0030003E00300031801E00000065
:100FA0000000000000000000000000000000000041
:100FB00002007F002400360015807E002000000023
:100FC0000000000000000000000000000000000021
:100FD00018000C007F001C00360036001C000000CA
:100FE0000000000000000000000000000000000001
:100FF00000000000000000000000000000000000F1
:1010000000000000000000000000000000000000E0
:101010000FF004300030002000400000000000000D
:1010200000000000000000000000000000000000C0
:101030003EF8061806180410082000000000000002
:1010400000000000000000000000000000000000A0
:101050000C000600062003F0000000000000000065
:101060000000000000000000000000000000000080
:101070000FF00600060003F0000000000000000072
:101080000000000000000000000000000000000060
:101090001FF00D800DA006F0000000000000000011
:1010A0000000000000000000000000000000000040
:1010B00007F000300FE0060003E000000000000031
:1010C0000000000000000000000000000000000020
:1010D0000FF00630062007E00400000000000000CA
:1010E0000000000000000000000000000000000000
:1010F0000C60063007F0063007E004000000000036
:1011000000000000000000000000000000000000DF
:101110001B600DB00FF00DB00FE0000000000000EC
:1011200000000000000000000000000000000100BE
:101130000180038007F00C38300000000000000040
:10114000000000000000000000000000000004405B
:10115000066006600CC01FF8331800000000000095
:10116000000000000000000000000000000000007F
:1011700003C00660066003C000000000000000001D
:10118000000000000000000000000000000000005F
:101190000FE001C003F00E38300000000000000036
:1011A000000000000000000000000000000000003F
:1011B0001FF006600CC01FF823180000000000009C
:1011C000000000000000000000000000000003001C
:1011D00001801FF003C00E783818000000000000E6
:1011E00000000000000000000000000000000000FF
:1011F0000FF000301FF00030002000400000000021
:1012000000000000000000000000000000000000DE
:101210000FE0060007E0060003E000000000000009
:1012200000000000000000000000000000000000BE
:101230000FF0066002C00FF0000000000000000088
:10124000000000000000000000000000000003009B
:1012500001800FF003C0066003C000000000000022
:10126000000000000000000000000000000000007E
:10127000000000000000000000000000000000006E
:10128000000000000000000000000000000000005E
:101290003F001300030002000000000000000000F7
:1012A000000000000000000000000000000000003E
:1012B0007F801980198011002200000000000000CA
:1012C000000000000000000000000000000000001E
:1012D0003000180019000F8000000000000000001E
:1012E00000000000000000000000000000000000FE
:1012F00001003F8018000F80000000000000000087
:1013000000000000000000000000000000000000DD
:101310007F80360036001B800000000000000000C7
:1013200000000000000000000000000000000000BD
:101330001F0003003E0018800F00000000000000A6
:10134000000000000000000000000000000000009D
:101350003F001B001A001E001000000000000000EB
:10136000000000000000000000000000000000007D
:1013700036001B001F001B001E00100000000000B4
:10138000000000000000000000000000000000005D
:10139000DB006D807F806D807F00400000000000DA
:1013A0000000000000000000000000000000040039
:1013B000060006000F801980600000000000000099
:1013C000000000000000000000000000000002001B
:1013D00013001B001F802D80500000000000000043
:1013E00000000000000000000000000000000000FD
:1013F0000E001B001B000E0000000000000000009B
:1014000000000000000000000000000000000000DC
:101410001F0006000F80198060000000000000001F
:1014200000000000000000000000000000000000BC
:101430003F801B001F802D80500000000000000036
:1014400000000000000000000000000000000C0090
:1014500006001F8007000D803080000000000000A3
:10146000000000000000000000000000000000007C
:101470003F0003003F0003000200000000000000E6
:10148000000000000000000000000000000000005C
:101490003F0018001F0018000F00000000000000AF
:1014A000000000000000000000000000000000003C
:1014B0003F801B000A803F00180000000000000071
:1014C00000000000000000000000000000000C0010
:1014D00006003F800E001B000E0000000000000010
:1014E00000000000000000000000000000000000FC
:1014F00000000000000000000000000000000000EC
:1015000000000000000000000000000000000030AB
:101510000018001800180018001A001F0018001802
:101520000018001800180018001000000000000C3F
:101530000066003600360036003E003600360036C3
:10154000003600360036002600040000000000309F
:10155000001800180018001A001F0018001A001FB9
:101560000018001800180018001000000000000CFF
:10157000006600360036003E00360036003E00367B
:101580000036003600360026000400000000001877
:10159000000C000C000C000C000C00FC000C000CFB
:1015A000000C000C000C000C000800000000000CF7
:1015B0000066003600360036003601F6003600368A
:1015C0000036003600360026000400000000001837
:1015D000000C000C000C00FC000C000C00FC000CCB
:1015E000000C000C000C000C000800000000000CB7
:1015F00000660036003601F60036003601F6003689
:10160000003600360036002600040000000000000E
:1016100000000000000000000000020003000300C2
:101620000300030C7FFE20000000000000000030DB
:1016300000180018001800180018101A181F183881
:1016400018D87F1830180018001000000000000C97
:10165000006600360036003600361036183E187622
:1016600019B67E363036002600040000000000184F
:10167000000C000C000C000C000C100C180C182CAA
:1016800018CC7F0C300C000C00080000000000009B
:1016900000000000000000000000000009000D80B4
:1016A0000D800D8C7FFE2000000000000000000077
:1016B00000000000000000000000000C7FFE218000
:1016C00001800180018001800100000000000018FD
:1016D000000C000C000C000C000C001C006C7F8C3B
:1016E00036FC064C060C040C000800000000000C40
:1016F00000660036003600360036007601B67E36CB
:101700002DF60CB60C360826000400000000001868
:10171000000C000C000C000C000C001C006C7F8CFA
:10172000360C060C060C040C00080000000000003B
:1017300000000000000000000000000C7FFE26609A
:1017400006600660066006600440000000000000BD
:101750000000000000000000000000000000000089
:101760000000000C7FFE20000000000000000018B8
:10177000000C000C000C000C000C000C000C002CE9
:1017800000CC7F0C300C000C00080000000000189A
:10179000000C000C000C000C000C000C000C000CE9
:1017A000000C000C000C000C000800000000000001
:1017B0000000000000000000000000000000000029
:1017C00000000000000000000000000000000030E9
:1017D0000018001800180018001A001F0018001840
:1017E0000018001800180018001000000000000C7D
:1017F0000066003600360036003E00360036003601
:1018000000360036003600260004000000000030DC
:10181000001800180018001A001F0018001A001FF6
:101820000018001800180018001000000000000C3C
:10183000006600360036003E00360036003E0036B8
:1018400000360036003600260004000000000018B4
:10185000000C000C000C000C000C00FC000C000C38
:10186000000C000C000C000C000800000000000C34
:101870000066003600360036003601F600360036C7
:101880000036003600360026000400000000001874
:10189000000C000C000C00FC000C000C00FC000C08
:1018A000000C000C000C000C000800000000000CF4
:1018B00000660036003601F60036003601F60036C6
:1018C000003600360036002600040000000000004C
:1018D0000000000000000000000000000100018086
:1018E0000180018C7FFE200000000000000000301D
:1018F00000180018001800180018001A0C1F0C38E7
:101900000CD87F1830180018001000000000000CE0
:101910000066003600360036003600360C3E0C7687
:101920000DB67E3630360026000400000000001898
:10193000000C000C000C000C000C000C0C0C0C2C0F
:101940000CCC7F0C300C000C0008000000000000E4
:10195000000000000000000000000000048006C03D
:1019600006C006CC7FFE2000000000000000000042
:1019700000000000000000000000000C7FFE21803D
:10198000018001800180018001000000000000183A
:10199000000C000C000C000C000C001C006C7F8C78
:1019A00036FC064C060C040C000800000000000C7D
:1019B00000660036003600360036007601B67E3608
:1019C0002DF60CB60C3608260004000000000018A6
:1019D000000C000C000C000C000C001C006C7F8C38
:1019E000360C060C060C040C000800000000000079
:1019F00000000000000000000000000C7FFE2660D8
:101A000006600660066006600440000000000000FA
:101A100000000000000000000000000000000000C6
:101A20000000000C7FFE20000000000000000018F5
:101A3000000C000C000C000C000C000C000C002C26
:101A400000CC7F0C300C000C0008000000000018D7
:101A5000000C000C000C000C000C000C000C000C26
:101A6000000C000C000C000C00080000000000003E
:101A70000000000000000000000000000000000066
:101A80000000000000000000000000000000003026
:101A9000001800180018001F00180018001000009F
:101AA0000000000000000000000000000000000C2A
:101AB00000660036003E0036003600360024000086
:101AC00000000000000000000000000000000030E6
:101AD00000180018001F0018001F00180010000058
:101AE0000000000000000000000000000000000CEA
:101AF00000660036003E0036003E0036002400003E
:101B000000000000000000000000000000000018BD
:101B1000000C000C000C00FC000C000C0008000085
:101B20000000000000000000000000000000000CA9
:101B300000660036003601F600360036002400004C
:101B4000000000000000000000000000000000187D
:101B5000000C000C00FC000C00FC000C0008000055
:101B60000000000000000000000000000000000C69
:101B70000066003600F6003600F60036002400004D
:101B80000000000000000000000000000000000055
:101B90000000000000000300030C7FFE2000000096
:101BA0000000000000000000000000000000003005
:101BB00000180018001A101F183818D87F18301095
:101BC0000000000000000000000000000000000C09
:101BD000006600360036103E187619B67E263004B0
:101BE00000000000000000000000000000000018DD
:101BF000000C000C000C100C186C198C7E0C3008BA
:101C000000000000000000000000000000000000D4
:101C10000000000000000D800D8C7FFE2000000001
:101C200000000000000000000000000000000000B4
:101C30000000000000000000000C7FFE21800180F9
:101C4000010000000000000000000000000000187B
:101C5000000C000C002C00CC7F0C2C7C0C0C080819
:101C60000000000000000000000000000000000C68
:101C700000660036003600B67F3636F60636042497
:101C8000000000000000000000000000000000183C
:101C9000000C000C002C00CC7F0C360C060C040849
:101CA0000000000000000000000000000000000034
:101CB0000000000000000000000C7FFE23600360B5
:101CC00002400000000000000000000000000000D2
:101CD0000000000000000000000C7FFE200000005B
:101CE00000000000000000000000000000000018DC
:101CF000000C000C000C000C002C00CC7F0C3008F9
:101D000000000000000000000000000000000018BB
:101D1000000C000C000C000C000C000C0008000073
:101D200000000000000000000000000000000000B3
:101D300000000000000000000000000000000000A3
:101D40000000000000000000000000000000003063
:101D5000001800180018001F0018001800100000DC
:101D60000000000000000000000000000000000C67
:101D7000006600360036003E0036003600240000C3
:101D80000000000000000000000000000000003023
:101D900000180018001F0018001F00180010000095
:101DA0000000000000000000000000000000000C27
:101DB00000660036003E0036003E0036002400007B
:101DC00000000000000000000000000000000018FB
:101DD000000C000C000C00FC000C000C00080000C3
:101DE0000000000000000000000000000000000CE7
:101DF00000660036003601F600360036002400008A
:101E000000000000000000000000000000000018BA
:101E1000000C000C00FC000C00FC000C0008000092
:101E20000000000000000000000000000000000CA6
:101E30000066003600F6003600F60036002400008A
:101E40000000000000000000000000000000000092
:101E500000000000000000000180018C7FFE2000D7
:101E60000000000000000000000000000000003042
:101E700000180018001A0C1F0C380CD87F183010EE
:101E80000000000000000000000000000000000C46
:101E90000066003600360C3E0C760DB67E26300409
:101EA000000000000000000000000000000000181A
:101EB000000C000C000C0C0C0C6C0D8C7E0C300813
:101EC0000000000000000000000000000000000012
:101ED000000000000000000006C006CC7FFE2000CD
:101EE00000000000000000000000000000000000F2
:101EF0000000000000000000000C7FFE2180018037
:101F000001000000000000000000000000000018B8
:101F1000000C000C000C002C00CC7F7C360C06085A
:101F20000400000000000000000000000000000CA1
:101F3000006600360036003600B67F3636F60624D8
:101F40000400000000000000000000000000001875
:101F5000000C000C000C002C00CC7F0C360C06088A
:101F6000040000000000000000000000000000006D
:101F70000000000000000000000C7FFE23600360F2
:101F8000024000000000000000000000000000000F
:101F900000000000000000000000000C7FFE200098
:101FA0000000000000000000000000000000001819
:101FB000000C000C000C000C002C00CC7F0C300836
:101FC00000000000000000000000000000000018F9
:101FD000000C000C000C000C000C000C00080000B1
:101FE00000000000000000000000000000000000F1
:101FF00000000000000000000000000000000000E1
:1020000000000000000000000000000000000000D0
:1020100000000000000000000000000000080010A8
:102020000FF804180018001800100000000000004D
:102030000000000000000000000000000008001088
:102040001FF8031803180318021000000000000016
:102050000000000000000000000000000008001068
:102060001F3003300338036C02CC00000000000076
:102070000000000000000000000000000008001840
:10208000061003000300030801FC0000000000002C
:102090000000000000000000000000000008001028
:1020A00030F81830183019780ECC0000000000000D
:1020B00000000000000000000000000000000030F0
:1020C00018180C7C0C380D6C07380000000000005C
:1020D00000000000000000000000000000000010F0
:1020E0000FF806000600061003F8000000000000CC
:1020F00000000000000000000000000000080010C8
:1021000007F8001807F0060003F8000000000000C0
:1021100000000000000000000000000000080010A7
:102120001FF803181E1818180F10000000000000F8
:102130000000000000000000000000000008001087
:102140001FF803D81ED818D80FF8000000000000B0
:102150000000000000000000000000000008001067
:102160001F9803D81EF818D80FF8000000000000D0
:102170000000000000000000000000000008001047
:102180001F3003301E3018780FCC00000000000014
:102190000000000000000000000000000008001027
:1021A0001FF803C01EF818C00F78000000000000E0
:1021B0000000000000000000000000000008001007
:1021C0001FFC03581ED818500FFC00000000000030
:1021D000000000000000000000000000000000609F
:1021E0001F3003F81E7018D80F70000000000000A8
:1021F00000000000000000000000000000080010C7
:1022000007F803180318031003F80000000000008B
:1022100000000000000000000000000000080010A6
:102220000618031803F8031803F800000000000064
:102230000000000000000000000000000008001086
:1022400013301B301F301B7C1FCC0000000000002F
:1022500000000000000000000000000000080090E6
:1022600000C000C001E003380618080000000000AC
:10227000000000000000000000000000000002203C
:102280000330033007F00CDC198C00000000000064
:102290000000000000000000000000000008001026
:1022A00001F003180318031801F0000000000000FB
:1022B0000000000000000000000000000008001006
:1022C00007F000C001E00338061808000000000015
:1022D0000000000000000000000000000008019065
:1022E00000C007F001C003780618080000000000D5
:1022F00000000000000000000000000000080010C6
:1023000007F8001807F8021800100000000000008D
:1023100000000000000000000000000000080010A5
:1023200007F8030003F8030001F8000000000000B4
:102330000000000000000000000000000008001085
:1023400007F8033001B0012007FC00000000000086
:1023500000000000000000000000000000080190E4
:1023600000C007F801E0033001E0000000000000B9
:10237000000000000000000000000000000000005D
:10238000000000000000000000000000000000004D
:102390000000000000000000000000000004000831
:1023A00007FC020C000C000C0008000000000000FC
:1023B0000000000000000000000000000004000811
:1023C0000FFC018C018C018C010800000000000052
:1023D00000000000000000000000000000040008F1
:1023E0000F980198019C01B60166000000000000F2
:1023F0000000000000000000000000000004000CCD
:10240000030801800180018400FE0000000000003C
:1024100000000000000000000000000000040008B0
:10242000187C0C180C180CBC07660000000000009B
:10243000000000000000000000000000000000306C
:1024400018180C7C0C380D6C0738000000000000D8
:102450000000000000000000000000000004000870
:1024600007FC03000300030801FC0000000000005B
:102470000000000000000000000000000004000850
:1024800003FC000C03F8030001FC00000000000046
:102490000000000000000000000000000004000830
:1024A0000FFC018C0F0C0CCC078800000000000012
:1024B0000000000000000000000000000004000810
:1024C0000FFC01EC0F6C0C6C07FC0000000000001E
:1024D00000000000000000000000000000040008F0
:1024E0000FCC01EC0F7C0C6C07FC0000000000001E
:1024F00000000000000000000000000000040008D0
:102500000F9801980F180C3C07E60000000000002F
:1025100000000000000000000000000000040008AF
:102520000FFC01E00F7C0C6007BC00000000000005
:10253000000000000000000000000000000400088F
:102540000FFE01AC0F6C0C2807FE0000000000001D
:10255000000000000000000000000000000000304B
:102560000F9801FC0F380C6C07B800000000000049
:10257000000000000000000000000000000400084F
:1025800003FC018C018C018801FC000000000000AC
:10259000000000000000000000000000000400082F
:1025A000030C018C01FC018C01FC00000000000008
:1025B000000000000000000000000000000400080F
:1025C00009980D980F980DBE0FE60000000000005E
:1025D00000000000000000000000000000040048AF
:1025E0000060006000F0019C030C0400000000008B
:1025F00000000000000000000000000000000110CA
:102600000198019803F8066E0CC600000000000057
:1026100000000000000000000000000000040008AE
:1026200000F8018C018C018C00F800000000000013
:10263000000000000000000000000000000400088E
:1026400003F8006000F0019C030C0400000000008F
:10265000000000000000000000000000000400C8AE
:10266000006003F800E001BC030C0400000000005F
:10267000000000000000000000000000000400084E
:1026800003FC000C03FC010C00080000000000002B
:10269000000000000000000000000000000400082E
:1026A00003FC018001FC018000FC00000000000030
:1026B000000000000000000000000000000400080E
:1026C00003FC019800D8009003FE00000000000009
:1026D000000000000000000000000000000400C82E
:1026E000006003FC00F0019800F000000000000012
:1026F00000000000000000000000000000000000DA
:1027000000000000000000000000000000000000C9
:1027100000000000000000000000000000020004B3
:1027200007FC020C000C000C000800000000000078
:102730000000000000000000000000000002000493
:1027400007FE00C600C600C60084000000000000AE
:102750000000000000000000000000000002001463
:102760000F980198019C01B601660000000000006E
:102770000000000000000000000000000012002621
:10278000030401800180018400FE000000000000BD
:102790000000000000000000000000000002000433
:1027A0000C3E060C060C065E03B3000000000000A1
:1027B0000000000000000000000000000000001801
:1027C0000C0C063E061C06B6039C00000000000030
:1027D00000000000000000000000000000020004F3
:1027E00003FE01800180018400FE00000000000063
:1027F00000000000000000000000000000020004D3
:1028000003FC000C03F8030001FC000000000000C2
:1028100000000000000000000000000000020004B2
:1028200007FE00C60786060603C40000000000007D
:102830000000000000000000000000000002000492
:1028400007FE00F607B6063603FE00000000000093
:102850000000000000000000000000000002000472
:1028600007E600F607BE063603FE00000000000083
:102870000000000000000000000000000002000452
:1028800007CC00CC078C061E03F3000000000000FC
:102890000000000000000000000000000002000432
:1028A00007FE00F007BE063003DE00000000000057
:1028B0000000000000000000000000000002000412
:1028C0000FFE01AC0F6C0C2807FE0000000000009A
:1028D00000000000000000000000000000000018E0
:1028E00007CC00FE079C063603DC00000000000059
:1028F00000000000000000000000000000020004D2
:1029000003FC018C018C018801FC00000000000028
:1029100000000000000000000000000000000008AF
:10292000030C018C01FC018C01FC00000000000084
:102930000000000000000000000000000002000491
:1029400004CC06CC07CC06DF07F300000000000033
:102950000000000000000000000000000002004431
:102960000060006000F0019C030C04000000000007
:102970000000000000000000000000000002011440
:102980000198019803F8066E0CC6000000000000D4
:102990000000000000000000000000000002000431
:1029A00000F8018C018C018C00F800000000000090
:1029B0000000000000000000000000000002000411
:1029C00003F8006000F0019C030C0400000000000C
:1029D000000000000000000000000000000200C431
:1029E000006003F800E001BC030C040000000000DC
:1029F00000000000000000000000000000020004D1
:102A000003FC000C03FC010C0008000000000000A7
:102A100000000000000000000000000000020004B0
:102A200003FC018001FC018000FC000000000000AC
:102A30000000000000000000000000000002000490
:102A400003FC019800D8009003FE00000000000085
:102A5000000000000000000000000000000200C4B0
:102A6000006003FC00F0019800F00000000000008E
:102A70000000000000000000000000000000000056
:102A80000000000000000000000000000000000046
:102A90000000000000000000000000000000000036
:102AA0000FF0043000300030002000000000000073
:102AB0000000000000000000000000000000000016
:102AC0000FF003300330033002200000000000004C
:102AD00000000000000000000000000000000000F6
:102AE0001F3003300338036C02CC000000000000EC
:102AF00000000000000000000000000000000000D6
:102B00000C0006000600061003F80000000000009C
:102B100000000000000000000000000000000000B5
:102B200018F80C300C300D7806CC000000000000C6
:102B30000000000000000000000000000000006035
:102B400018300CF80C700CD8077000000000000062
:102B50000000000000000000000000000000002055
:102B60000FF006000600062003F000000000000041
:102B70000000000000000000000000000000000055
:102B800007F0003007E0060003F00000000000003E
:102B90000000000000000000000000000000000035
:102BA0001FF803181E1818180F100000000000006E
:102BB0000000000000000000000000000000000015
:102BC0001FF803D81ED818D80FF800000000000026
:102BD00000000000000000000000000000000000F5
:102BE0001F9803D81EF818D80FF800000000000046
:102BF00000000000000000000000000000000000D5
:102C00001F3003301E3018780FCC00000000000089
:102C100000000000000000000000000000000000B4
:102C20001FF803C01EF018C00F780000000000005D
:102C30000000000000000000000000000000000094
:102C40001FFC03581ED818500FFC000000000000A5
:102C50000000000000000000000000000000006014
:102C60001F3003F81E7018D80F700000000000001D
:102C70000000000000000000000000000000000054
:102C80000FF006300630062007F0000000000000BC
:102C90000000000000000000000000000000002014
:102CA0000C30063007F0063007F00000000000008E
:102CB0000000000000000000000000000000000014
:102CC00012301B301F301B7C1ECC000000000000A7
:102CD00000000000000000000000000000000000F4
:102CE0000180018003C006700C301000000000005D
:102CF0000000000000000000000000000000044090
:102D0000066006600FE019B83318000000000000EC
:102D100000000000000000000000000000000000B3
:102D200003C006600660066003C0000000000000EB
:102D30000000000000000000000000000000000093
:102D400007F000C001E0033806180800000000008A
:102D500000000000000000000000000000000180F2
:102D600000C007F001C0037806180800000000004A
:102D70000000000000000000000000000000000053
:102D80000FF000700FB006300020000000000000BF
:102D90000000000000000000000000000000000033
:102DA0000FF0060007F0060003F00000000000002E
:102DB0000000000000000000000000000000000013
:102DC0000FF00660036002400FF8000000000000F2
:102DD00000000000000000000000000000000300F0
:102DE00001800FF003C0066003C0000088618862A4
:102DF000886588688869886A886B88718873887430
:102E000088758876887788788879887B887C887DBB
:102E10008881888288858889889188938895889612
:102E2000889788A188A288A588A988B588B788C10D
:102E300088C588C988E188E288E588E888E988EB60
:102E400088F188F388F588F688F788F888FB88FC8D
:102E500088FD894189458949895189538955895610
:102E600089578961896289638965896889698971F6
:102E70008973897589768977897B8981898589892B
:102E80008993899589A189A289A589A889A989ABEE
:102E900089AD89B089B189B389B589B789B889C144
:102EA00089C289C589C989CB89D189D389D589D76F
:102EB00089E189E589E989F189F689F78A418A42B8
:102EC0008A458A498A518A538A558A578A618A650E
:102ED0008A698A738A758A818A828A858A888A89B8
:102EE0008A8A8A8B8A908A918A938A958A978A9805
:102EF0008AA18AA28AA58AA98AB68AB78AC18AD5EE
:102F00008AE18AE28AE58AE98AF18AF38AF58B41C5
:102F10008B458B498B618B628B658B688B698B6A68
:102F20008B718B738B758B778B818BA18BA28BA510
:102F30008BA88BA98BAB8BB18BB38BB58BB78BB8B5
:102F40008BBC8C618C628C638C658C698C6B8C7196
:102F50008C738C758C768C778C7B8C818C828C8539
:102F60008C898C918C938C958C968C978CA18CA24F
:102F70008CA98CE18CE28CE38CE58CE98CF18CF3F0
:102F80008CF58CF68CF78D418D428D458D518D558C
:102F90008D578D618D658D698D758D768D7B8D815C
:102FA0008DA18DA28DA58DA78DA98DB18DB38DB568
:102FB0008DB78DB88DB98DC18DC28DC98DD68DD788
:102FC0008DE18DE28DF78E418E458E498E518E5367
:102FD0008E578E618E818E828E858E898E908E9197
:102FE0008E938E958E978E988EA18EA98EB68EB763
:102FF0008EC18EC28EC58EC98ED18ED38ED68EE1F5
:103000008EE58EE98EF18EF38F418F618F628F6531
:103010008F678F698F6B8F708F718F738F758F77BD
:103020008F7B8FA18FA28FA58FA98FB18FB38FB503
:103030008FB7906190629063906590689069906A94
:10304000906B90719073907590769077907890795E
:10305000907B907D908190829085908990919093C3
:1030600090959096909790A190A290A590A990B1DC
:1030700090B790E190E290E490E590E990EB90ECCD
:1030800090F190F390F590F690F790FD9141914278
:103090009145914991519153915591569157916113
:1030A0009162916591699171917391769177917A1D
:1030B0009181918591A191A291A591A991AB91B195
:1030C00091B391B591B791BC91BD91C191C591C991
:1030D00091D6924192459249925192539255926162
:1030E00092629265926992739275927792819282BE
:1030F000928592889289929192939295929792A1B9
:1031000092B692C192E192E592E992F192F39341E3
:103110009342934993519353935793619362936569
:103120009369936A936B9371937393759377937881
:10313000937C93819385938993A193A293A593A95B
:1031400093AF93B193B393B593B793BC94619462E7
:103150009463946594689469946A946B946C947085
:103160009471947394759476947794789479947D0B
:10317000948194829485948994919493949594964F
:10318000949794A194E194E294E394E594E894E90B
:1031900094EB94EC94F194F394F594F794F994FCF3
:1031A0009541954295459549955195539555955617
:1031B00095579561956595699576957795819585EE
:1031C00095A195A295A595A895A995AB95AD95B115
:1031D00095B395B595B795B995BB95C195C595C965
:1031E00095E195F696419645964996519653965592
:1031F00096619681968296859689969196939695F4
:10320000969796A196B696C196D796E196E596E9D9
:1032100096F396F596F797419745974997519757A3
:1032200097619762976597689769976B977197739E
:1032300097759777978197A197A297A597A897A930
:1032400097B197B397B597B697B797B898619862C3
:103250009865986998719873987598769877987D1D
:10326000988198829885988998919893989598963E
:10327000989798E198E298E598E998EB98EC98F19E
:1032800098F398F598F698F798FD994199429945E1
:1032900099499951995399559956995799619976A0
:1032A00099A199A299A599A999B799C199C999E1A3
:1032B0009A419A459A819A829A859A899A909A9186
:1032C0009A979AC19AE19AE59AE99AF19AF39AF74C
:1032D0009B619B629B659B689B699B719B739B75C4
:1032E0009B819B859B899B919B939BA19BA59BA964
:1032F0009BB19BB39BB59BB79C619C629C659C6991
:103300009C719C739C759C769C779C789C7C9C7D26
:103310009C819C829C859C899C919C939C959C966D
:103320009C979CA19CA29CA59CB59CB79CE19CE20F
:103330009CE59CE99CF19CF39CF59CF69CF79CFD1C
:103340009D419D429D459D499D519D539D559D5734
:103350009D619D629D659D699D719D739D759D7625
:103360009D779D819D859D939D959DA19DA29DA5E8
:103370009DA99DB19DB39DB59DB79DC19DC59DD78F
:103380009DF69E419E459E499E519E539E559E5739
:103390009E619E659E699E739E759E779E819E82AC
:1033A0009E859E899E919E939E959E979EA19EB678
:1033B0009EC19EE19EE29EE59EE99EF19EF59EF7EE
:1033C0009F419F429F459F499F519F539F559F57A4
:1033D0009F619F629F659F699F719F739F759F7794
:1033E0009F789F7B9F7C9FA19FA29FA59FA99FB134
:1033F0009FB39FB59FB7A061A062A065A067A068BA
:10340000A069A06AA06BA071A073A075A077A07836
:10341000A07BA07DA081A082A085A089A091A0937F
:10342000A095A096A097A098A0A1A0A2A0A9A0B79F
:10343000A0E1A0E2A0E5A0E9A0EBA0F1A0F3A0F537
:10344000A0F7A0F8A0FDA141A142A145A149A15129
:10345000A153A155A156A157A161A162A165A1697E
:10346000A175A176A177A179A181A1A1A1A2A1A411
:10347000A1A5A1A9A1ABA1B1A1B3A1B5A1B7A1C1BA
:10348000A1C5A1D6A1D7A241A245A249A253A25546
:10349000A257A261A265A269A273A275A281A282AB
:1034A000A283A285A288A289A28AA28BA291A293BA
:1034B000A295A297A29BA29DA2A1A2A5A2A9A2B3F6
:1034C000A2B5A2C1A2E1A2E5A2E9A341A345A349F5
:1034D000A351A355A361A365A369A371A375A3A178
:1034E000A3A2A3A5A3A8A3A9A3ABA3B1A3B3A3B568
:1034F000A3B6A3B7A3B9A3BBA461A462A463A46445
:10350000A465A468A469A46AA46BA46CA471A47340
:10351000A475A477A47BA481A482A485A489A49182
:10352000A493A495A496A497A49BA4A1A4A2A4A5A3
:10353000A4B3A4E1A4E2A4E5A4E8A4E9A4EBA4F163
:10354000A4F3A4F5A4F7A4F8A541A542A545A54870
:10355000A549A551A553A555A556A557A561A56291
:10356000A565A569A573A575A576A577A57BA58194
:10357000A585A5A1A5A2A5A3A5A5A5A9A5B1A5B306
:10358000A5B5A5B7A5C1A5C5A5D6A5E1A5F6A64132
:10359000A642A645A649A651A653A661A665A68140
:1035A000A682A685A688A689A68AA68BA691A6939A
:1035B000A695A697A69BA69CA6A1A6A9A6B6A6C1B7
:1035C000A6E1A6E2A6E5A6E9A6F7A741A745A74971
:1035D000A751A755A757A761A762A765A769A771B4
:1035E000A773A775A7A1A7A2A7A5A7A9A7ABA7B1CE
:1035F000A7B3A7B5A7B7A7B8A7B9A861A862A865D8
:10360000A869A86BA871A873A875A876A877A87DE3
:10361000A881A882A885A889A891A893A895A8960A
:10362000A897A8A1A8A2A8B1A8E1A8E2A8E5A8E83F
:10363000A8E9A8F1A8F5A8F6A8F7A941A957A96192
:10364000A962A971A973A975A976A977A9A1A9A247
:10365000A9A5A9A9A9B1A9B3A9B7AA41AA61AA779D
:10366000AA81AA82AA85AA89AA91AA95AA97AB41FA
:10367000AB57AB61AB65AB69AB71AB73ABA1ABA245
:10368000ABA5ABA9ABB1ABB3ABB5ABB7AC61AC62FF
:10369000AC64AC65AC68AC69AC6AAC6BAC71AC7377
:1036A000AC75AC76AC77AC7BAC81AC82AC85AC89CC
:1036B000AC91AC93AC95AC96AC97ACA1ACA2ACA5DC
:1036C000ACA9ACB1ACB3ACB5ACB7ACC1ACC5ACC9D2
:1036D000ACD1ACD7ACE1ACE2ACE3ACE4ACE5ACE88B
:1036E000ACE9ACEBACECACF1ACF3ACF5ACF6ACF7F4
:1036F000ACFCAD41AD42AD45AD49AD51AD53AD555D
:10370000AD56AD57AD61AD62AD65AD69AD71AD732F
:10371000AD75AD76AD77AD81AD85AD89AD97ADA118
:10372000ADA2ADA3ADA5ADA9ADABADB1ADB3ADB5DA
:10373000ADB7ADBBADC1ADC2ADC5ADC9ADD7ADE1E6
:10374000ADE5ADE9ADF1ADF5ADF6AE41AE45AE4995
:10375000AE51AE53AE55AE61AE62AE65AE69AE71FE
:10376000AE73AE75AE77AE81AE82AE85AE88AE89F1
:10377000AE91AE93AE95AE97AE99AE9BAE9CAEA118
:10378000AEB6AEC1AEC2AEC5AEC9AED1AED7AEE179
:10379000AEE2AEE5AEE9AEF1AEF3AEF5AEF7AF41F7
:1037A000AF42AF49AF51AF55AF57AF61AF62AF65F1
:1037B000AF69AF6AAF71AF73AF75AF77AFA1AFA2AB
:1037C000AFA5AFA8AFA9AFB0AFB1AFB3AFB5AFB70B
:1037D000AFBCB061B062B064B065B069B071B073D5
:1037E000B076B077B07DB081B082B085B089B0914D
:1037F000B093B096B097B0B7B0E1B0E2B0E5B0E941
:10380000B0EBB0F1B0F3B0F6B0F7B141B145B149AA
:10381000B157B1A1B1A2B1A5B1A8B1A9B1ABB1B134
:10382000B1B3B1B7B1C1B1C2B1C5B1D6B1E1B1F6B1
:10383000B241B245B249B251B253B261B281B28221
:10384000B285B289B291B293B297B2A1B2B6B2C107
:10385000B2E1B2E5B357B361B362B365B369B36BB9
:10386000B370B371B373B381B385B389B391B3A1AB
:10387000B3A2B3A5B3A9B3B1B3B3B3B5B3B7B4618E
:10388000B462B465B466B467B469B46AB46BB47056
:10389000B471B473B475B476B477B47BB47CB481CA
:1038A000B482B485B489B491B493B495B496B49702
:1038B000B4A1B4A2B4A5B4A9B4ACB4B1B4B3B4B512
:1038C000B4B7B4BBB4BDB4C1B4C5B4C9B4D3B4E126
:1038D000B4E2B4E5B4E6B4E8B4E9B4EAB4EBB4F104
:1038E000B4F3B4F4B4F5B4F6B4F7B4F8B4FAB4FC81
:1038F000B541B542B545B549B551B553B555B557BF
:10390000B561B562B563B565B569B56BB56CB571D3
:10391000B573B574B575B576B577B57BB57CB57D42
:10392000B581B585B589B591B593B595B596B5A170
:10393000B5A2B5A5B5A9B5AAB5ABB5ADB5B0B5B18C
:10394000B5B3B5B5B5B7B5B9B5C1B5C2B5C5B5C9E6
:10395000B5D1B5D3B5D5B5D6B5D7B5E1B5E2B5E5F1
:10396000B5F1B5F5B5F7B641B642B645B649B6516B
:10397000B653B655B657B661B662B665B669B67196
:10398000B673B675B677B681B682B685B689B68A8D
:10399000B68BB691B693B695B697B6A1B6A2B6A5B4
:1039A000B6A9B6B1B6B3B6B6B6B7B6C1B6C2B6C5A5
:1039B000B6C9B6D1B6D3B6D7B6E1B6E2B6E5B6E982
:1039C000B6F1B6F3B6F5B6F7B741B742B745B74962
:1039D000B751B753B755B757B759B761B762B7655E
:1039E000B769B76FB771B773B775B777B778B77986
:1039F000B77AB77BB77CB77DB781B785B789B79101
:103A0000B795B7A1B7A2B7A5B7A9B7AAB7ABB7B0D3
:103A1000B7B1B7B3B7B5B7B6B7B7B7B8B7BCB86192
:103A2000B862B865B867B868B869B86BB871B87388
:103A3000B875B876B877B878B881B882B885B889DB
:103A4000B891B893B895B896B897B8A1B8A2B8A5E8
:103A5000B8A7B8A9B8B1B8B7B8C1B8C5B8C9B8E1BE
:103A6000B8E2B8E5B8E9B8EBB8F1B8F3B8F5B8F72B
:103A7000B8F8B941B942B945B949B951B953B9557D
:103A8000B957B961B965B969B971B973B976B97717
:103A9000B981B9A1B9A2B9A5B9A9B9ABB9B1B9B33D
:103AA000B9B5B9B7B9B8B9B9B9BDB9C1B9C2B9C968
:103AB000B9D3B9D5B9D7B9E1B9F6B9F7BA41BA4569
:103AC000BA49BA51BA53BA55BA57BA61BA62BA6565
:103AD000BA77BA81BA82BA85BA89BA8ABA8BBA91E8
:103AE000BA93BA95BA97BAA1BAB6BAC1BAE1BAE26C
:103AF000BAE5BAE9BAF1BAF3BAF5BB41BB45BB497D
:103B0000BB51BB61BB62BB65BB69BB71BB73BB75A2
:103B1000BB77BBA1BBA2BBA5BBA8BBA9BBABBBB1C1
:103B2000BBB3BBB5BBB7BBB8BBBBBBBCBC61BC62AA
:103B3000BC65BC67BC69BC6CBC71BC73BC75BC7635
:103B4000BC77BC81BC82BC85BC89BC91BC93BC9554
:103B5000BC96BC97BCA1BCA5BCB7BCE1BCE2BCE5B3
:103B6000BCE9BCF1BCF3BCF5BCF6BCF7BD41BD572C
:103B7000BD61BD76BDA1BDA2BDA5BDA9BDB1BDB391
:103B8000BDB5BDB7BDB9BDC1BDC2BDC9BDD6BDE125
:103B9000BDF6BE41BE45BE49BE51BE53BE77BE81D5
:103BA000BE82BE85BE89BE91BE93BE97BEA1BEB683
:103BB000BEB7BEE1BF41BF61BF71BF75BF77BFA1D7
:103BC000BFA2BFA5BFA9BFB1BFB3BFB7BFB8BFBD7D
:103BD000C061C062C065C067C069C071C073C07594
:103BE000C076C077C078C081C082C085C089C091CE
:103BF000C093C095C096C097C0A1C0A5C0A7C0A9DA
:103C0000C0B1C0B7C0E1C0E2C0E5C0E9C0F1C0F3D7
:103C1000C0F5C0F6C0F7C141C142C145C149C1515B
:103C2000C153C155C157C161C165C176C181C1854B
:103C3000C197C1A1C1A2C1A5C1A9C1B1C1B3C1B53B
:103C4000C1B7C1C1C1C5C1C9C1D7C241C245C249BD
:103C5000C251C253C255C257C261C271C281C2822F
:103C6000C285C289C291C293C295C297C2A1C2B68F
:103C7000C2C1C2C5C2E1C2E5C2E9C2F1C2F3C2F526
:103C8000C2F7C341C345C349C351C357C361C362EC
:103C9000C365C369C371C373C375C377C3A1C3A22B
:103CA000C3A5C3A8C3A9C3AAC3B1C3B3C3B5C3B78C
:103CB000C461C462C465C469C471C473C475C47783
:103CC000C481C482C485C489C491C493C495C49674
:103CD000C497C4A1C4A2C4B7C4E1C4E2C4E5C4E8A3
:103CE000C4E9C4F1C4F3C4F5C4F6C4F7C541C54280
:103CF000C545C549C551C553C555C557C561C565F8
:103D0000C569C571C573C575C576C577C581C5A1BA
:103D1000C5A2C5A5C5A9C5B1C5B3C5B5C5B7C5C1FA
:103D2000C5C2C5C5C5C9C5D1C5D7C5E1C5F7C64159
:103D3000C649C661C681C682C685C689C691C69374
:103D4000C695C697C6A1C6A5C6A9C6B7C6C1C6D7D9
:103D5000C6E1C6E2C6E5C6E9C6F1C6F3C6F5C6F7D2
:103D6000C741C745C749C751C761C762C765C7696A
:103D7000C771C773C777C7A1C7A2C7A5C7A9C7B16E
:103D8000C7B3C7B5C7B7C861C862C865C869C86ADC
:103D9000C871C873C875C876C877C881C882C88515
:103DA000C889C891C893C895C896C897C8A1C8B70C
:103DB000C8E1C8E2C8E5C8E9C8EBC8F1C8F3C8F56E
:103DC000C8F6C8F7C941C942C945C949C951C9530B
:103DD000C955C957C961C965C976C981C985C9A10C
:103DE000C9A2C9A5C9A9C9B1C9B3C9B5C9B7C9BC0F
:103DF000C9C1C9C5C9E1CA41CA45CA55CA57CA617C
:103E0000CA81CA82CA85CA89CA91CA93CA95CA9701
:103E1000CAA1CAB6CAC1CAE1CAE2CAE5CAE9CAF1B8
:103E2000CAF3CAF7CB41CB45CB49CB51CB57CB617A
:103E3000CB62CB65CB68CB69CB6BCB71CB73CB75CE
:103E4000CB81CB85CB89CB91CB93CBA1CBA2CBA57F
:103E5000CBA9CBB1CBB3CBB5CBB7CC61CC62CC6368
:103E6000CC65CC69CC6BCC71CC73CC75CC76CC7773
:103E7000CC7BCC81CC82CC85CC89CC91CC93CC959D
:103E8000CC96CC97CCA1CCA2CCE1CCE2CCE5CCE9D1
:103E9000CCF1CCF3CCF5CCF6CCF7CD41CD42CD4531
:103EA000CD49CD51CD53CD55CD57CD61CD65CD69E2
:103EB000CD71CD73CD76CD77CD81CD89CD93CD9597
:103EC000CDA1CDA2CDA5CDA9CDB1CDB3CDB5CDB729
:103ED000CDC1CDD7CE41CE45CE61CE65CE69CE73B4
:103EE000CE75CE81CE82CE85CE88CE89CE8BCE9138
:103EF000CE93CE95CE97CEA1CEB7CEE1CEE5CEE98C
:103F0000CEF1CEF5CF41CF45CF49CF51CF55CF5789
:103F1000CF61CF65CF69CF71CF73CF75CFA1CFA25E
:103F2000CFA5CFA9CFB1CFB3CFB5CFB7D061D06236
:103F3000D065D069D06ED071D073D075D077D08174
:103F4000D082D085D089D091D093D095D096D0977B
:103F5000D0A1D0B7D0E1D0E2D0E5D0E9D0EBD0F11C
:103F6000D0F3D0F5D0F7D141D142D145D149D1518B
:103F7000D153D155D157D161D162D165D169D171B8
:103F8000D173D175D176D177D181D185D189D193B2
:103F9000D1A1D1A2D1A5D1A9D1AED1B1D1B3D1B541
:103FA000D1B7D1BBD1C1D1C2D1C5D1C9D1D5D1D75A
:103FB000D1E1D1E2D1E5D1F5D1F7D241D242D2451A
:103FC000D249D253D255D257D261D265D269D27377
:103FD000D275D281D282D285D289D28ED291D29517
:103FE000D297D2A1D2A5D2A9D2B1D2B7D2C1D2C2D0
:103FF000D2C5D2C9D2D7D2E1D2E2D2E5D2E9D2F14A
:10400000D2F3D2F5D2F7D341D342D345D349D351DA
:10401000D355D357D361D362D365D367D368D369FC
:10402000D36AD371D373D375D377D37BD381D3853D
:10403000D389D391D393D397D3A1D3A2D3A5D3A913
:10404000D3B1D3B3D3B5D3B740F0200070472DE937
:10405000F14FB2B09A4601A8914600230691C0E9FB
:1040600000333C9A0F930DF14A0114914A7009E014
:10407000329823464A4604A900F09EFF002800F12A
:104080002081A14499F80000252808D100210022B0
:1040900009910A920B910C920D910E920FE001AAD8
:1040A0004FF0FF31484601F01BF8040002D10F9891
:1040B00000F0E4BDDCD50124E3E741F0010119F88B
:1040C000010F2028F9D023280CD02B2804D02D282C
:1040D00005D0302809D00BE041F00201EFE741F0B4
:1040E0000401ECE741F00801E9E741F01001E6E7DF
:1040F0002A280FD1DAF8002052F8040BCAF8002061
:104100000028119003D54042119041F0040109F1BB
:10411000010914E01192DFF8E83A0AE01198984298
:1041200005DA00EB800402EB4402303A119209F107
:10413000010999F80020A2F130000A28EED399F87D
:1041400000002E2803D04FF0FF32109229E019F81A
:10415000010F2A2809D1DAF8000050F8042BCAF818
:104160000000109209F101091BE02D280CBF09F194
:104170000109002000221092DFF8842A0BE040B9E8
:10418000109B934205DA03EB830504EB4504303CB6
:10419000109409F1010999F80040A4F130030A2BA9
:1041A000EDD3ADF848100FF65C2099F8001000F040
:1041B000A1FF08B119F8010B8DF84A009DF84A00DB
:1041C000682805D199F8000068280CD1622106E022
:1041D0006C2804BF99F800006C2804D171218DF877
:1041E0004A1009F1010922A8089019F801BBBBF196
:1041F00025012DD01C3900F02681091F022940F22B
:1042000022810E392AD0491F00F03484093900F088
:104210001A81891E00F0C784491E00F07684491E69
:10422000022940F21081091F00F06F84491F00F03D
:104230007F80491E00F01E84491E65D0C91E21D012
:10424000891E00F01784C91E00F0148400F0C8BC59
:104250000122099225218DF888102AE06C208DF822
:104260004A00DAF8000050F8042BCAF80000002ACF
:1042700043D11499487800283DD04FF0FF340FF611
:104280008C1012E09DF84A006C28EAD0DAF80000A1
:1042900050F8044BCAF800000794D4B91499487830
:1042A00098B14FF0FF340FF6801000F03DFF201A58
:1042B00007D1329822AA04A900F0E3FC00287FF578
:1042C000E1AE4FF0FF3000F0D9BC0FF67810079048
:1042D000EFE7109D002D04D5204600F045FF044671
:1042E00007E02A46204600F049FF002814BF041BBF
:1042F0002C460A94DDE70FF65012329804A900F01C
:1043000046FD0028D5D5DCE7DAF8001051F8040B9B
:10431000CAF8001020F00004002121F0FF35CDE99B
:10432000044522AB0793782104A800F090FDC0E774
:104330001499487820B14FF0FF340FF61010B4E70D
:104340009DF84A00622862D0682819D06A2840D0B7
:104350006C2806D071284DD074282DD07A281ED014
:1043600064E0DAF8001051F8040BCAF8001020B924
:104370004FF0FF340FF6EC0097E70F99016098E7D4
:10438000DAF8001051F8040BCAF8001020B94FF009
:10439000FF340FF6D00088E70F99018089E7DAF83B
:1043A000001051F8040BCAF800100028E5D14FF0B6
:1043B000FF340FF6B00078E7DAF8001051F8040B7C
:1043C000CAF800100028D8D14FF0FF340FF694003F
:1043D0006BE7DAF8001051F8040BCAF8001020B9A6
:1043E0004FF0FF340FF67C005FE70F9AD317C0E958
:1043F00000235EE7DAF8001051F8040BCAF8001049
:104400000028F2D14FF0FF340FF658004DE7DAF8EC
:10441000001051F8040BCAF8001020B94FF0FF3417
:104420000FF6400041E70F99017042E7DAF80010FB
:1044300051F8040BCAF8001000289ED14FF0FF3449
:104440000FF6200031E7DAF80000C31D9DF84A009E
:1044500023F007034C28CAF80030D3E9000107BF56
:104460000833CAF8003003F10804CAF80040CDE967
:104470000401C80F02D009982D210AE0BDF84800B8
:10448000810702D509982B2103E0C00705D50998BB
:10449000202122AB1954401C099022A80999DDE97A
:1044A000044543184BF020006128079315AE0BD04C
:1044B0001098002802D50620109005E001BF4BF0AF
:1044C0002000672801211091DDE904014F007F15CC
:1044D00017F1010F11D108030FD0ABF161020320D6
:1044E0001A2A0A9002D20FF6003101E00FF6FC21E1
:1044F0000322184600F06EFEDBE617F1010F0AD129
:10450000090308D1ABF1610203201A2A0A9018D3DB
:104510000FF6E021ECE7DDE904016A4600F066FEF3
:10452000CDE904014BF02000612811D1079830211A
:104530000170821C0792BBF1610F0CBF78215821DA
:1045400002E00FF6AC21D3E741700998801C099076
:10455000DDE9040120F0000231F0004308BF002A29
:1045600002D10025002446E14BF02008B8F1610F8C
:1045700040F095801098002847BF21210391401CEE
:104580000390039F7F1C2046294600220023DDE97B
:10459000044500F063FE38BF85F0004500998DF8B2
:1045A0005420091F002F00910DF1550034DD0646FF
:1045B000204629460022002300F06AFE2BD21C224E
:1045C00000F080FE04460D4600F01EFFFF1F002F86
:1045D000804609DD00F034FF02460B46204629469E
:1045E00000F0F6FF04460D46F01D0721B8F1000F5C
:1045F0000CDD491E5EBF08F00F0200F8012D4FEAE6
:104600002818F3D502E0002200F8012D491EFAD542
:10461000C61D002FCCDC30460DF15501401A039920
:104620000DF1550605468842C8BF0D46002D2FD412
:10463000854206DA0DF15500415D0829A8BF0F201B
:1046400000DA0020294615AA0A4400E06D1E12F87F
:104650000139491E8342F9D00F2804D10DF15500CC
:10466000425C521C4254002904D50098001D15AE2E
:104670006D1C0090681E0BD431180A783032D3B20A
:104680003A2BA4BF5A443A3A401E01F80129F4D506
:104690001098002840F1AE80691E1091AAE00099A0
:1046A000DFF8042947F29750414391FBF2F2009260
:1046B00025F00045C2F10702002A04DD2046294604
:1046C00000F04FFC0BE052420020DFF8E01800F051
:1046D00048FC02460B462046294600F0EBFF044604
:1046E0000D46B8F1660F06BF009F0A3706271098DF
:1046F0003F18142FC8BF142730208DF85400002015
:10470000DFF8AC18CDE920010DF15506002F33DD9F
:104710002046294601F0F2F801460A4606F1080350
:1047200004200A26B2FBF6F606EB860EA2EB4E023A
:10473000303203F8012C0A22B6FBF2F202EB820EB1
:10474000A6EB4E063036401E03F8026DE9D1083F55
:10475000002F03F10806D9DD084601F0E1F8024612
:104760000B462046294600F033FFDDE9202301F007
:10477000E5F804460D46CBE70DF15500301A0DF172
:10478000550604E00099491E401E0091761C3178C0
:104790003029F7D0B8F1660F02D10099491C04E026
:1047A000B8F1650F0CBF01210021109D4D19A842E1
:1047B000B8BF451E002D1DD4854204DA705D342833
:1047C000C8BF392000DC30202946721E531800E093
:1047D0006D1E13F80149491E8442F9D0392802D1CF
:1047E000705C401C7054002904D50098401C16468B
:1047F0006D1C0090009C00F077FC406A0778DDF8A3
:10480000408028B2002802DC01250FF2EC764BF044
:104810002000662808BF641C16D0672846D120B245
:1048200010F1040F48DB404546DA9DF84800641C4F
:10483000010703D428B24045D8BF804620B2B8EB68
:10484000000848BF4FF000080FFA84FB07980A9948
:10485000BBF1000F00F3B3804A1C0A92302343548B
:10486000B8F1000F03DC9DF84800010704D50A9851
:10487000411C0A9107990F5418EB0B0FB8BFC8F1F0
:10488000000424B26042A0442AB20D909045B8BF03
:104890004546079B0A982DB20B952A463146184487
:1048A00000F098FCA8EB05000E90CCE0BBF1610F86
:1048B00017D14FF0700B19E028B2404504DA9DF88B
:1048C00048100A0758BF8046B8F1010848BF4FF0AA
:1048D0000008BBF1670F14BF4FF0450B4FF0650B9D
:1048E00004E0BBF1410F08BF4FF0500B0A98411C88
:1048F0000A91B8F1000F079916F8012B0A5403DC4E
:104900009DF8480001071AD50A98411C0A91B8F190
:10491000000F07990F5412DD6D1E28B28045B8BFF5
:10492000454607980A9B2AB23146184400F052FCCB
:104930000A992DB269180A91A8EB05000D90079805
:104940000A99084421B2002980F800B003D42B2230
:104950004270821C04E02D2242700C46821C64428C
:1049600000211FAB20460AE004460A2094FBF0F029
:1049700000EB8005A4EB450403F8014B491C00B291
:104980000028F1DC012906DC4BF02000652804BF7B
:10499000302002F8010B00291FAB08D1302002F8AB
:1049A000010B06E0491E585C303002F8010B00296B
:1049B000F8DC07990A980844121A0B9243E008445D
:1049C00029B222B2914219DA2AB2314600F002FC31
:1049D0000A992DB269180A91ABEB0500B8F1000FE6
:1049E0000D9003DC9DF84800020704D50798475452
:1049F0000B99491C0B91CDF8388024E0314600F02A
:104A0000E9FB0A982D1B5844B8F1000F0A9003DC0B
:104A10009DF848100A0703D5411C0A9107990F54C5
:104A200028B28045B8BF454607980A9B2AB206EBD4
:104A30000B01184400F0CEFB0A982DB228180A90FA
:104A4000A8EB05000D909DF8480000F01400102818
:104A50007FF42FAC099A0A990D988A180B9982183D
:104A60000E988A18821811988242BFF622AC821AD8
:104A70000C921EE49DF84A00622808D068280ED0E7
:104A80006A2814D06C281FD0712810D01CE0DAF8E6
:104A9000001051F8040BCAF80010C0B21AE0DAF89E
:104AA000001051F8040BCAF8001080B212E0DAF8D6
:104AB0000000C21D22F00702CAF80020D2E900015E
:104AC0000832CAF8002006E0DAF8001051F8040BAA
:104AD000CAF800100021CDE904019DF84800010743
:104AE0005AD5DDE90423002B08BF002A54D04BF02F
:104AF0002000782850D1099822A930220A54401C5D
:104B0000431C099301F800B046E09DF84A00622872
:104B100008D068280ED06A2814D06C281FD07128BD
:104B200010D01CE0DAF8001051F8040BCAF800109D
:104B300040B21AE0DAF8001051F8040BCAF800107D
:104B400000B212E0DAF80000C21D22F00702CAF833
:104B50000020D2E900010832CAF8002006E0DAF8A5
:104B6000001051F8040BCAF80010C117CDE9040178
:104B7000002902D509982D210AE0BDF848008107D7
:104B800002D509982B2103E0C00705D509982021FB
:104B900022AA1154401C099022A8099901440791A6
:104BA0005946FFF7C1BB9DF84A006C2809D0012186
:104BB0000991DAF8000050F8041BCAF80000FFF76A
:104BC0004ABBDAF8000050F8041BCAF8000015913F
:104BD0004FF0FF3210920021169115AAFFF78DBBFE
:104BE00001212522BBF1000F09918DF888203FF4A7
:104BF00060AB022209928DF889B0FFF75ABB000022
:104C0000CBCCCC0C686A6C747A4C00007072696E04
:104C100074665F733A2062616420256C7320617250
:104C200067756D656E7400007072696E74665F738F
:104C30003A2062616420257320617267756D656E2C
:104C40007400000000000000000000007072696E37
:104C500074665F733A20256E20646973616C6C6FB3
:104C6000776564007072696E74663A2062616420D0
:104C7000256E20617267756D656E740033B0BDE896
:104C8000F08F2DE9FC410F46064690467A6B786915
:104C9000396ABC6A121AB869521A796A121AF86922
:104CA000521A121A97F83800141B41070FD420200B
:104CB000002C8DF800000ADD254601236A4639469E
:104CC000304600F079F900285DD16D1EF5D17B6981
:104CD00042463946304600F06FF9002853D1302063
:104CE0008DF800003D6A002D09DD01236A46394632
:104CF000304600F061F9002845D16D1EF5D1BB6941
:104D0000FA683946304600F057F900283BD1302088
:104D10008DF800007D6A002D08DD01236A463946C2
:104D2000304600F049F970BB6D1EF6D1F868B969DC
:104D3000FB6942183946304600F03EF918BB302076
:104D40008DF80000BD6A002D08DD01236A46394652
:104D5000304600F031F9B0B96D1EF6D197F8380041
:104D600041070DD52020002C8DF8000008DD01231F
:104D70006A463946304600F01FF920B9641EF6D164
:104D80000020BDE8F6814FF0FF30BDE8F6812DE947
:104D9000F8470D46A3B02F6B82469046002F48BFC0
:104DA0006FF0004700F09FFE696B401801AA0021D8
:104DB000C2E90011812828BF4FF0FF3044D2894654
:104DC0001EE0A74230DB6869201881280BD3002140
:104DD000696303AA29465046FFF753FF5FEA0009BB
:104DE00022D40020686103AB6E6922466946981997
:104DF00000F0F0F9A6196E6158F8040BA0B13F1B42
:104E0000002F11DDD8F8001001AA684600F06AF9F9
:104E10000446002C05D4D8F800000028D1D1641E27
:104E2000CFD54FF0FF390EE0B9F1000F504604D155
:104E300003AA2946FFF725FF8146B9F1000F02D1E9
:104E4000002068616863484624B0BDE8F0872DE91A
:104E5000FC4707468A463C6950466F2808BF08252C
:104E600005D0FFF7F1F8782814BF0A251025D7E9F7
:104E700000013C2680468946BAF1640F18BFBAF19A
:104E8000690F05D1002903D5D8F1000869EB49095C
:104E9000B9F1000F08BFB8F1000F0CD1386B50B951
:104EA000082D3AD197F83800010736D530223B2635
:104EB00084F83B2031E08DF800A0404649462A4660
:104EC000EB1700F015FE3032D0B2761E3A2801966C
:104ED0000EDAA255404649462A46EB1700F008FE76
:104EE00080465FEA010908BFB8F1000F05D108E06C
:104EF0009DF800001218513AEBE7F868A1198842B2
:104F0000DBD3082D09D197F83800010705D5A05D3E
:104F1000302802D0761E3020A055C6F13C02BA617E
:104F2000A119F960386B824208DA821A3A624FF6A8
:104F3000EF70398F01403987BDE8F38700280ED51F
:104F400097F8380000F01400102808D17B6B7969BD
:104F5000386A5B1A1B1A9A1A002AC8BF3A62BDE85F
:104F6000F3872DE9D04306460F4614464FF000085C
:104F7000DFF8409012E0E00707D542464B46304646
:104F8000394600F0DBFC06460F464046494642469D
:104F90004B4600F0D3FC641080468946002CEAD1D1
:104FA00030463946BDE8D083A08601000000F03FBE
:104FB00084D7974100002440F8B505460E461746B1
:104FC0001C4600205CB117F8011BB068A847B06010
:104FD00030B1F06A401CF0620020641EF3D1F2BDD3
:104FE0004FF0FF30F2BD00006E616E004E414E008A
:104FF000696E6600494E46003000F0B40246106803
:1050000095681318506803EB5004C00748BF4D441F
:10501000A3422DD013F8016B16F0030004BF13F860
:10502000010BC01C31090F2907D113F8011B0F31E7
:1050300003E013F8017B05F8017B401EF9D100293C
:10504000E6D013F8010BC6F38106032E08BF13F850
:10505000016B00EB0620404228440026B71E8F4219
:105060001EBF10F8017B05F8017B761CF6D1CFE757
:10507000F0BC02F10C0070471C48704770B45368D4
:10508000D41801E05B1C491E042B08DA00291FBF5D
:10509000057804F8015B10F8016B002EF2D1536023
:1050A00070BC704738B514461D4661B1FFF7E6FF86
:1050B00061686A6B204690476FF00102811A02D046
:1050C000491E01D001E003E005E00021616032BD2E
:1050D0006FF0010032BD4FF0FF3032BDDA6B104788
:1050E000024BDFE7014BF9E7014870474800002019
:1050F00010000020C9B202788A421AB11CBF10F811
:10510000012FF9E718BF00207047B1F5807F02D367
:105110004FF0FF3070470170012070470078401E4B
:105120008041C043C00F704780B500B906A0054953
:105130000B681BB122220021984701E000F0F0FD2E
:10514000222002BDC0470020636F6E7374726169D4
:105150006E742068616E646C65723A2062616420CE
:105160006D6573736167650000F1010310F8011B41
:1051700011B110F8011BFBE7C01A7047C9B28307D1
:1051800006D0521E22D310F8013B9942F7D11FE0FE
:10519000083A13D302F1040241EA012141EA014134
:1051A00050F8043B121F21BF4B40A3F1013C2CEAF5
:1051B000030C1CF0803FF3D0C9B2001F083210F876
:1051C000013B521E28BF91EA030FF8D818BF0120F7
:1051D000401E70474AB1000011F8013B521E00F812
:1051E000013B1CBF11F8013BF8E7704710B51446AE
:1051F00000F002F8226010BDC1F30A5343B14A0027
:1052000012F5001F28D2A3F2FE32A1EB0251704723
:1052100050EA410C20D001F0004C31EA0C01B1FA07
:1052200081F204BFB0FA80F3D2180B3AB2F1200336
:105230002CBF00FA03F1914041EA0C013EBFC2F1DC
:10524000200C20FA0CF319439040524240F2FD33F7
:10525000D21A01EB035170470022704741EA030C58
:1052600050EA4C0C52EA0C0C4FF4001C09D307D046
:105270001CEB410F9CBF1CEB430F8B4208BF8242CB
:1052800070471CEB430FFBD8994208BF9042704710
:1052900041EA030C50EA4C0C52EA0C0C4FF4001C8F
:1052A00009D307D01CEB410F9CBF1CEB430F994265
:1052B00008BF904270471CEB410FFBD88B4208BFE0
:1052C00082427047124254D440F2FF7C1CEA1153D0
:1052D0000FD0634531D09B1863453CBF01EB0251B1
:1052E000704701F0004141EA0C510020AFF300800B
:1052F000704750EA410320D001F0004C91EA0C01C4
:105300001CD0B1FA81F30B3B9A420DD9D21A9940C5
:1053100051EA0C01C3F1200C20FA0CFC61449840C6
:10532000531C40F2FF7CD7E7914041EA0C01C2F1E7
:10533000200C20FA0CF3194390407047B0FA80F328
:105340001533202BE0D3202AEED3203A203B9A427B
:1053500009D9D21A00FA03F141EA0C010020531CCA
:1053600040F2FF7CB8E700FA02F141EA0C010020AC
:105370007047524240F2FF7C1CEA11530DD0634546
:10538000DBD0B2EB030C3CBFA1EB025170470CF138
:10539000010221EA035141F4801150EA410CCCD0C2
:1053A00001F0004C352A27DC30B481EA0C01B2F15F
:1053B000200309DAC2F12003044601FA03F5D040C4
:1053C0002843D1409C400CE0C3F12002450020FA64
:1053D00003F418BF44F0010421FA03F091400C4398
:1053E000002174F1004550F1000051EB0C01244202
:1053F00030BC7FF47BAF70476146002076E70268DF
:10540000531C036011707047C1F30A5340F21E42EF
:10541000D31A0CDDCA0283F3070342EA505242F06A
:105420000042DA4002EBE17282EAE17070476FEA13
:10543000E17203F2E13008B182F0004070472E00C3
:1054400010F0004160B148BF4042B0FA80F2904095
:10545000D21CC2F5846241EA025202EBD02140051F
:1054600070474300841A71EB030604D26E40001BA0
:10547000B141121973414FF4001C1CEB410F34BFB2
:105480007CEB430683E00C0DA4EB1356362E00F3A1
:105490007C80012E45EAC32341DC43EA525312BF0C
:1054A000D20292025B08240545EAC12141EA50512B
:1054B000D2EBC020994125D407D1B0FA80F610FA7A
:1054C00006F162D00020203608E0B1FA81F6B14042
:1054D000C6F1200220FA02F21143B0404FEAF47400
:1054E000B4EB465434F001064FEA74040AD8D6F5FA
:1054F0000016760D04F00044F04061FA06F25040C8
:10550000F1404840C00A40EA415021F0004128BF24
:105510005FEA500550F1000044EBD12135E0DB0A91
:1055200045EAC121C90AB6F120050EDD42EA024270
:10553000120CC5F1200603FA06F6EB4042EA060516
:105540006D42984161F100010DE062FA06F5F2400A
:10555000554063FA06FC82EA0C02F3405A406D4261
:10556000904161EB030111F4801F05D1641E6205B7
:1055700002D06D004041494121F48011430875F18A
:10558000004350F1000041EB045170BC70471CEB2C
:10559000410F15D223F0004352EA43060BD04FEAE5
:1055A0004C0CBCEB410F04D80C0D661E342EB7DD3D
:1055B000EBE7801A994150EA410608BF0021E4E771
:1055C00008BF1CEB430F28BF6FF00001DDE70000B0
:1055D00070B491EA030F4FF000457FF543AF6B4085
:1055E000841A71EB030603D2001BB14112197341F7
:1055F0004FF4001C1CEB410F34BF7CEB430442E032
:105600000C0DA4EB1356352E4FDC45EAC323DB0A01
:1056100045EAC121C912B6F120050DDD63FA05F690
:10562000EB4086EA0305124218BF45F00105C01899
:1056300051F100010CD213E062FA06F5F240554038
:10564000F3415A40B340F3405A408018594107D3C0
:1056500049085FEA30005FEA350528BF45F00105DB
:1056600001F58011420875F1004250F1000041EB54
:1056700004514E0016F5001F70BC38BF7047002063
:10568000090D090570471CEB410F10D252EA430681
:105690000BD0BCEB410F05D80C0DAB43661E342E6E
:1056A000B6DD02E0AB438018594170BC704770BC56
:1056B00070470000F0B540F2FF7581EA030C0CF072
:1056C000004C15EA11541DBF15EA1357AC42AF4206
:1056D000E5E0BC41C1F31301C3F31303801A994100
:1056E00043F4801304D2641E0018494180185941C4
:1056F000C90241EA5051B1FBF3F603FB1611A2FBBC
:105700000675D7EBC020A94102D2761E80185941F8
:10571000C90241EA5051B1FBF3FE03FB1E11A2FB8B
:105720000E75D7EBC020A94103D2AEF1010E80184F
:105730005941890241EA9051760546EA8E2EB1FB25
:10574000F3F603FB1611A2FB0675D7EB8020A941E7
:1057500002D2761E80185941C90241EA50514EEAE0
:10576000060EB1FBF3F603FB1611A2FB0675D7EB91
:10577000C020A94102D2761E80185941C90241EACF
:105780005051B1FBF3F703FB1711A2FB0735D3EB25
:10579000C020A94167F100070CBF004247F0010794
:1057A00066F3D5274FEA1E31B80814F5806412DD80
:1057B000BD0775F1004250EB0E5051EB045111F54D
:1057C000801F5CBF41EA0C01F0BD4CF07F6141F0ED
:1057D000E0410020F0BDBD076D0840EA0E5041F4E5
:1057E0008011D4F10104B4F120060ADAC4F12006D4
:1057F0000200E04001FA06F3E1401843B2401543CD
:105800000EE0342C13DCC6F1200445EA40056D0897
:1058100020FA06F2154321FA06F0A1400D430021BB
:1058200075F1004250F1000051EB0C01F0BD002079
:105830005FEA0C01F0BDCFB992185B41B3FA83F770
:1058400004BFB2FA82F6BF190B3FB7F120062FBF93
:1058500002FA06F3BB40C7F1200622FA06F638BF6B
:105860003343BA401CB1E419641E33E77F4231F080
:105870000041B1FA81F404BFB0FA80F6A4190B3CE0
:10588000B4F120062FBF00FA06F1A140C4F12006B2
:1058900020FA06F638BF3143A0403C1B1AE7AC4261
:1058A0001ABF05EA1357AF4212E050EA41061CBF87
:1058B00052EA4306BFE750EA4107304661461CBF43
:1058C00041EA0551F0BD52EA430C08BFC143F0BDA7
:1058D00000204FF4001616EB410F98BF16EB430F54
:1058E00008BF16EB410F24BFC14305E016EB430F81
:1058F0000CBF61464CEA0551F0BD0000400D40F27E
:105900001E4C40EAC120BCEB115C40F0004003D4C7
:105910008CF30701C84070476FEAE17070470000E0
:1059200050B1B0FA80F18840C91CC1F58461090505
:1059300001EBD021400570470146704730B540F279
:10594000FF7C1CEA11541DBF1CEA135564456545D4
:105950003FE0641981EA030C6FF35F530CF0004CD5
:1059600043F48013C90241F0004141EA505EC50290
:105970001100A5FB020200284FF00000EEFB012001
:105980004FF00001E3FB052118BF42F0010240186F
:1059900000214941E3FB0E01A4F580640D0302D20E
:1059A00092184041494154F1010470DD450872F1FB
:1059B000004250F1000051EB0451A1F5801102D4D6
:1059C00041EA0C0130BD40F2FF7E4CEA0E5100204E
:1059D00030BD0CEA1355644518BF654581EA030CD8
:1059E0000CF0004C41D050EA410E1CBF52EA430E6D
:1059F00002E06146002030BD24422C441BD15FEA06
:105A0000050EF6D0090302BF01460020AEF1140EC8
:105A1000B1FA81F5AEEB050401FA05FE0C35C5F1CE
:105A2000200100FA05F5C8404EEA000E6FF35F53FF
:105A300043F480139CE733F00043B3FA83F504BFCB
:105A4000B2FA82FE75440B3D641BB5F1200E2FBFE8
:105A500002FA0EF3AB40C5F1200E22FA0EFE38BF5B
:105A600043EA0E03AA40641C7CE750EA410E14BFCF
:105A700052EA430E6FF000014FF4001515EB430F8F
:105A80008EBF194615EB410F9DE7B4D830BDD4F158
:105A90000104B4F120050FDAC4F12005520828BF33
:105AA00042F0010210FA05FE01FA05F57244E2BF68
:105AB000E0402843E1400FE0352C9ADCC5F120049A
:105AC00052EA400220FA05F218BF42F0010231FA10
:105AD00005F0A1400A43002172F1004250F100009C
