:020000040800F2
:10000000D84F0020856A01089561010897610108B1
:10001000996101089B6101089D61010800000000D1
:100020000000000000000000000000009F610108C7
:10003000A161010800000000A3610108A561010899
:10004000D16C0108D56C0108D96C0108AD610108BB
:10005000DD6C0108E16C0108E56C0108E96C010840
:10006000ED6C0108F16C0108F56C0108F96C0108F0
:10007000E5610108EF610108F96101080362010807
:100080000D62010817620108FD6C0108016D01088D
:10009000056D0108096D01080D6D0108116D01085C
:1000A000156D0108196D01081D6D0108216D01080C
:1000B00021620108256D0108296D01082D6D0108D7
:1000C000316D0108356D0108396D01083D6D01087C
:1000D000416D01082B6201085F620108936201080B
:1000E000456D0108496D01084D6D010801B5642396
:1000F00001226946DFF8280A04F0C0F801BD70B596
:1001000000242000C0B2082820DADFF8186A5FF463
:1001100080103060002005002800C0B2082811DAE5
:10012000601CC0B2FFF7E2FFDFF8FC092900C9B28A
:1001300000EBC1002100C9B20844807FFFF7D6FF61
:100140006D1CE9E710203060641CDAE770BD000028
:100150000100481E89B2002912D000BF00BF00BFB5
:1001600000BF00BF00BF00BF00BF00BF00BF00BF97
:1001700000BF00BF00BF00BF00BF00BF00BFE7E778
:1001800070470100DFF8A4290800C0B20011105C1C
:10019000C9B211F00F01515C50EA0110C0B27047B2
:1001A000F0B400260300DBB2882B03DA0B00DBB2CD
:1001B000082B00DB3FE00300DBB2DB080500EDB2FB
:1001C000082795FBF7F407FB14540127D4F1070522
:1001D00017FA05F51700FFB2002F16D0DFF84869AF
:1001E0001F00FFB206EBC7078C465FFA8CFC674422
:1001F0009C465FFA8CFC06EBCC068C465FFA8CFCC6
:100200006644B67F2E43BE7715E0DFF81C691F00F9
:10021000FFB206EBC7078C465FFA8CFC67449C462E
:100220005FFA8CFC06EBCC068C465FFA8CFC6644CD
:10023000B67FAE43BE77F0BC7047F0B40026030033
:10024000DBB2282B03DA0B00DBB2082B00DB43E028
:100250000300DBB2DB080500EDB2082795FBF7F4DD
:1002600007FB14540127D4F1070517FA05F5170009
:10027000FFB2002F18D0DFF8B0681F00FFB206EB06
:10028000C7078C465FFA8CFC67449C465FFA8CFC7F
:1002900006EBCC068C465FFA8CFC664496F8A660AA
:1002A0002E4387F8A66017E0DFF87C681F00FFB2D6
:1002B00006EBC7078C465FFA8CFC67449C465FFAE6
:1002C0008CFC06EBCC068C465FFA8CFC664496F8F8
:1002D000A660AE4387F8A660F0BC7047F0B4020099
:1002E00000231000C0B2882803DA0800C0B2082832
:1002F00001DB02201DE01400E4B2E4081000C0B2EB
:10030000082690FBF6F506FB15050120D5F107063A
:1003100010FA06F6DFF810082700FFB200EBC7005E
:100320000F00FFB23844807F304201D0012000E04E
:100330000020F0BC70472DE9F84F04008A461500F4
:100340005FF00009D3460027DFF8DC07052141767E
:10035000082181765FF000084046C0B2052833DAF4
:10036000DFF8341C2A00D2B205234046C0B203FB9A
:10037000020201EB020010F8A00C814600200600EA
:100380003000C0B208281CDA19F0010007003A005A
:10039000D2B25146C9B22000C0B2FFF701FF5FFAE6
:1003A00089F95FEA59091AF1010A5146C9B258465A
:1003B000C0B2091A082902D1DA46641C01E0761C91
:1003C000DEE718F10108C7E7BDE8F18F2DE9F84F26
:1003D00004008A4615005FF00009D3460027DFF8C5
:1003E000480705214176082181765FF000084046E4
:1003F000C0B2052831DADFF8A41B2A00D2B20523E7
:100400004046C0B203FB020201EB020010F8A00C50
:100410008146002006003000C0B208281ADAC9F36D
:10042000C01007003A00D2B25146C9B22000C0B293
:10043000FFF7B6FE5FEA49091AF1010A5146C9B24F
:100440005846C0B2091A082902D1DA46641C01E0F4
:10045000761CE0E718F10108C9E7BDE8F18F2DE946
:10046000F74F83460C001D005FF0000A8DF800B0C6
:100470000027DFF8B486042088F81900062088F8E1
:100480001A009DF808002E2802D1032088F81900D0
:100490005FF000094846C0B2062844DADFF8041BC2
:1004A0009DF8082006234846C0B203FB020201EB78
:1004B000020010F8C00C8246002006003000C0B2D6
:1004C00004282DDACAF3C00010F00100070028004C
:1004D000C0B2002808D13A00D2B22100C9B25846B1
:1004E000C0B2FFF75DFE07E03A00D2B22100C9B208
:1004F0005846C0B2FFF7A1FE5FEA4A0A1BF1010BA2
:100500005946C9B29DF80000091A98F819008142AD
:1005100004D19DF800008346641C01E0761CCDE701
:1005200019F10109B6E7042088F81900BDE8F78F32
:100530002DE9F84F83460C0015001E005FF0000AFD
:100540008DF800B05FF00008DFF8DC050721417688
:10055000082181765FF000094846C0B208285EDABB
:100560003000C0B200280DD1DFF83C0A2900C9B222
:100570004A46D2B212EBC1021044B0F58070007846
:10058000824626E03000C0B201280FD1DFF81C0AF5
:100590002900C9B24A46D2B212EBC1021044B0F5EA
:1005A00080700078FFF7EDFD824612E03000C0B2A7
:1005B00002280ED1DFF8F8092900C9B24A46D2B2A2
:1005C00012EBC1021044B0F580700078FFF7D9FD3E
:1005D0008246002007003800C0B208281CDACAF39F
:1005E000C01080465FEA4A0A4246D2B22100C9B230
:1005F0005846C0B2FFF7D4FD1BF1010B5946C9B2F2
:100600009DF80000091A072904D19DF800008346CF
:10061000641C01E07F1CDEE719F101099CE7BDE8DD
:10062000F18F2DE9F84F83460C0015001E005FF096
:10063000000A8DF800B05FF00008DFF8EC04072135
:100640004176082181765FF000094846C0B208284B
:100650005EDA3000C0B200280DD1DFF84C09290065
:10066000C9B24A46D2B212EBC1021044B0F5807052
:100670000078824626E03000C0B201280FD1DFF8B2
:100680002C092900C9B24A46D2B212EBC102104469
:10069000B0F580700078FFF774FD824612E03000FC
:1006A000C0B202280ED1DFF808092900C9B24A46B3
:1006B000D2B212EBC1021044B0F580700078FFF79F
:1006C00060FD8246002007003800C0B208281CDA0E
:1006D000CAF3C01080465FEA4A0A4246D2B22100FD
:1006E000C9B25846C0B2FFF7A8FD1BF1010B59462D
:1006F000C9B29DF80000091A072904D19DF800002D
:100700008346641C01E07F1CDEE719F101099CE7C8
:10071000BDE8F18F2DE9F84F06000F00904699468D
:100720000A9C0B9D4846C0B2002802D10420834693
:100730000CE04846C0B2012802D10520834605E0FE
:100740004846C0B2022801D10720834698F800002D
:10075000002865D098F80000824618F10108584634
:10076000C0B2D0F17F003100C9B2884258DB4846A0
:10077000C0B2002803D0022822D00BD339E02B00CE
:10078000DBB25246D2B23900C9B23000C0B2FFF774
:1007900066FE2EE02000C0B2002808D15246D2B238
:1007A0003900C9B23000C0B2FFF710FE07E0524670
:1007B000D2B23900C9B23000C0B2FFF7BCFD18E0B8
:1007C0002800C0B200280AD12300DBB25246D2B2C0
:1007D0003900C9B23000C0B2FFF7AAFE09E0230019
:1007E000DBB25246D2B23900C9B23000C0B2FFF714
:1007F00018FF4846C0B2002805D15046C0B22E2886
:1008000001D1F61CA2E74846C0B2022805D15046E5
:10081000C0B22E2801D1761D98E71BEB060695E79E
:10082000BDE8F18F2DE9F84185B004000D001600F8
:100830001F000A2100220DF10808404603F084FE43
:100840003000C0B200280BD0022839D009D30428C8
:1008500050D047D306285DD054D3072862D0A6E0F5
:10086000A5E0B14890F8EB00002817D0380080B21E
:10087000642801DB632007003B009BB20A2093FB46
:10088000F0F100FB1133380080B20A2190FBF1F245
:10089000DFF8201702A803F0C9FE10E03B009BB26E
:1008A0000A2093FBF0F100FB1133380080B20A21DB
:1008B00090FBF1F2DFF8001702A803F0B7FE76E034
:1008C0003B009BB20A2093FBF0F100FB1133380090
:1008D00080B20A2190FBF1F2DFF8E01602A803F0E3
:1008E000A5FE64E0DFF8D826DFF8D81602A803F0EA
:1008F0009DFE5CE03A0092B2DFF8CC1602A803F04D
:1009000095FE54E03A0092B2DFF8C01602A803F058
:100910008DFE4CE0DFF8B826DFF8B81602A803F029
:1009200085FE44E0380080B200280BD0022815D0A4
:100930000ED304281ED017D3062827D020D307288B
:100940002AD02FE0DFF8901602A803F06FFE2EE009
:10095000DFF8881602A803F069FE28E0DFF88016A9
:1009600002A803F063FE22E0DFF8781602A803F085
:100970005DFE1CE0DFF8101E02A803F057FE16E033
:10098000DFF8081E02A803F051FE10E0DFF8001E99
:1009900002A803F04BFE0AE0DFF8F81D02A803F0FE
:1009A00045FE04E0DFF8F01D02A803F03FFE002042
:1009B00001905D48C07E0090022302AA2900C9B2BE
:1009C0002000C0B2FFF7A6FE06B0BDE8F081F8B582
:1009D00086B004000D0016001F00380080B20A2106
:1009E00033009BB20A2290FBF1FC01FB1C0001903A
:1009F000380080B20A2190FBF1F0009093FBF2F0F6
:100A000002FB1033300080B20A2190FBF1F2DFF8D4
:100A10008C1D02A803F00AFE002001900020009027
:100A2000002302AA2900C9B22000C0B2FFF772FE5B
:100A300007B0F0BD2DE9FC4704000D00170017F1C9
:100A40000108DFF85C0D804501DB002080460026B0
:100A5000DFF8509D00210800C0B2062840DA6A463F
:100A600097FBF9F00B00DBB2D0542F480B00DBB240
:100A7000D35C8C465FFA8CFC84448CF80C3098FB79
:100A8000F9F38C465FFA8CFC6044837497FBF9F0B1
:100A900009FB107798FBF9F009FB10880A2099FBF5
:100AA000F0F90800C0B2105C002803D13000C0B2D9
:100AB000002809D0012006000800C0B2105C3030C8
:100AC0000B00DBB2D05409E00800C0B2042801D109
:100AD0000120060020200B00DBB2D054491CBAE7ED
:100AE0005FF0000A5046C0B2062815DA6846514643
:100AF000C9B2425C2900C9B22300DBB2D4465FFA16
:100B00008CFC0948407E00FB0C331800C0B2FFF794
:100B100012FC1AF1010AE5E7BDE8F38700000000C6
:100B2000D046002010080140EC440020346A01083F
:100B30002DE9F04F85B005000E00170098460024FF
:100B4000F879401C8DF8080097F8069097F805A0F2
:100B50004046C0B2002805D0DFF8EC0D017891F0D6
:100B6000010101709DF808003C2812DB00208DF87F
:100B7000080019F101094846C0B23C2809DB0020F1
:100B800081461AF1010A5046C0B2182801DB002044
:100B900082464046C0B201284FD1DFF8AC0D007844
:100BA00000280BD003A820212200D2B28154641C5B
:100BB00020212200D2B28154641C14E003A8797968
:100BC0000A2291FBF2F130312200D2B28154641C2E
:100BD00079790A2291FBF2F302FB131130312200E2
:100BE000D2B28154641C03A8B9790A2291FBF2F1B4
:100BF00030312200D2B28154641CB9790A2291FBAF
:100C0000F2F302FB131130312200D2B28154641C82
:100C1000F9790A2291FBF2F130312200D2B28154EB
:100C2000641CF9790A2291FBF2F302FB13113031B3
:100C30002200D2B28154641C5DE14046C0B2022859
:100C40004DD103A978790A2290FBF2F030302200CE
:100C5000D2B28854641C78790A2290FBF2F302FB2A
:100C6000130030302200D2B28854641CDFF8D80C54
:100C7000007800280AD020202200D2B28854641CB8
:100C800020202200D2B28854641C13E0B8790A22D2
:100C900090FBF2F030302200D2B28854641CB87954
:100CA0000A2290FBF2F302FB130030302200D2B292
:100CB0008854641CF8790A2290FBF2F0303022004C
:100CC000D2B28854641CF8790A2290FBF2F302FB3A
:100CD000130030302200D2B28854641C0BE140462D
:100CE000C0B203284DD103A978790A2290FBF2F013
:100CF00030302200D2B28854641C78790A2290FBEA
:100D0000F2F302FB130030302200D2B28854641C8C
:100D1000B8790A2290FBF2F030302200D2B2885427
:100D2000641CB8790A2290FBF2F302FB1300303006
:100D30002200D2B28854641CDFF80C0C0078002822
:100D40000AD020202200D2B28854641C2020220025
:100D5000D2B28854641CCEE0F8790A2290FBF2F0FB
:100D600030302200D2B28854641CF8790A2290FBF9
:100D7000F2F302FB130030302200D2B28854641C1C
:100D8000B9E003A879790A2291FBF2F12200D2B2EC
:100D90008154641C79790A2291FBF2F302FB13114E
:100DA0002200D2B28154641CB9790A2291FBF2F17B
:100DB0002200D2B28154641CB9790A2291FBF2F369
:100DC00002FB13112200D2B28154641CF9790A2269
:100DD00091FBF2F12200D2B28154641CF9790A220B
:100DE00091FBF2F302FB13112200D2B28154641C76
:100DF00000210A00D2B2062A11DA0A00D2B2825CBD
:100E0000DFF8483B0C00E4B223441A730A00D2B264
:100E1000825C30320B00DBB2C254491CE9E700248B
:100E2000DFF8282B5046C0B20A2390FBF3F02300D2
:100E3000DBB213449874641C5046C0B20A2390FB82
:100E4000F3FC03FB1C002300DBB213449874641C06
:100E50004846C0B20A2390FBF3F02300DBB21344F0
:100E60009874641C4846C0B20A2390FBF3FC03FB51
:100E70001C002300DBB213449874641C9DF8080026
:100E80000A2390FBF3F02300DBB213449874641C34
:100E90009DF808000A2390FBF3FC03FB1C002300D1
:100EA000DBB213449874641C4046C0B2042822D1BB
:100EB000DFF8940A007800280CD000200190002070
:100EC0000090012336A2012115F13000C0B2FFF7D6
:100ED00021FC10E000200190002000900123DFF8A9
:100EE000440D92F8E21000EB8102012115F130006F
:100EF000C0B2FFF70FFC5FF0000B5846C0B20228EB
:100F000018DADFF848CA9CF81B3003A85946C9B262
:100F1000425C3100C9B22C00E4B25846C0B29CF821
:100F200019C00CFB004C6046C0B2FFF701FB1BF17F
:100F3000010BE2E75846C0B2042812DADFF80C0AC7
:100F4000C37E03A95A46D2B28A5C3100C9B2407E40
:100F500000FB0B50C01CC0B2FFF7EAFA1BF1010BFB
:100F6000E8E75846C0B2062812DADFF8E009C37E87
:100F700003A95A46D2B28A5C3100C9B2407E00FB56
:100F80000B50801DC0B2FFF7D3FA1BF1010BE8E74D
:100F900005B0BDE8F08F0000345E0108545C010824
:100FA0002020200014450108544A0108544D01082E
:100FB0005450010894690108A4690108B469010842
:100FC000384B0020B86A0108C4690108C46A0108E6
:100FD000414B0020D06A0108906C0108DC6A0108CE
:100FE000E86A0108F46A01082DE9F04F85B00500B0
:100FF0000E00170098460024F879401C8DF80A006E
:1010000097F8069097F805A04046C0B2002805D092
:10101000DFF8140C017891F0010101709DF80A00CD
:101020003C2812DB00208DF80A0019F1010948461E
:10103000C0B23C2809DB002081461AF1010A504663
:10104000C0B2182801DB002082464046C0B2012809
:101050004FD1DFF8D40B007800280BD003A8202153
:101060002200D2B28154641C20212200D2B28154C9
:10107000641C14E003A879790A2291FBF2F1303163
:101080002200D2B28154641C79790A2291FBF2F3D6
:1010900002FB131130312200D2B28154641C03A828
:1010A000B9790A2291FBF2F130312200D2B2815497
:1010B000641CB9790A2291FBF2F302FB131130315F
:1010C0002200D2B28154641CF9790A2291FBF2F118
:1010D00030312200D2B28154641CF9790A2291FB8A
:1010E000F2F302FB131130312200D2B28154641C9E
:1010F0005CE14046C0B202284DD103A978790A22AA
:1011000090FBF2F030302200D2B28854641C78791F
:101110000A2290FBF2F302FB130030302200D2B21D
:101120008854641CDFF8000B007800280AD02020C7
:101130002200D2B28854641C20202200D2B28854EB
:10114000641C13E0B8790A2290FBF2F030302200E0
:10115000D2B28854641CB8790A2290FBF2F302FBE5
:10116000130030302200D2B28854641CF8790A226D
:1011700090FBF2F030302200D2B28854641CF8792F
:101180000A2290FBF2F302FB130030302200D2B2AD
:101190008854641C0AE14046C0B203284DD103A91B
:1011A00078790A2290FBF2F030302200D2B28854D3
:1011B000641C78790A2290FBF2F302FB13003030B2
:1011C0002200D2B28854641CB8790A2290FBF2F053
:1011D00030302200D2B28854641CB8790A2290FBC5
:1011E000F2F302FB130030302200D2B28854641CA8
:1011F000DFF8340A007800280AD020202200D2B27A
:101200008854641C20202200D2B28854641CCDE093
:10121000F8790A2290FBF2F030302200D2B28854E2
:10122000641CF8790A2290FBF2F302FB13003030C1
:101230002200D2B28854641CB8E003A879790A224B
:1012400091FBF2F12200D2B28154641C79790A2216
:1012500091FBF2F302FB13112200D2B28154641C01
:10126000B9790A2291FBF2F12200D2B28154641CB6
:10127000B9790A2291FBF2F302FB13112200D2B2D8
:101280008154641CF9790A2291FBF2F12200D2B256
:101290008154641CF9790A2291FBF2F302FB1311C9
:1012A0002200D2B28154641C00210A00D2B2062A64
:1012B00011DA0A00D2B2825CDFF890360C00E4B298
:1012C00023441A730A00D2B2825C30320B00DBB2C4
:1012D000C254491CE9E70024DFF870065246D2B236
:1012E0000A2392FBF3F22300DBB203449A74641CDA
:1012F0005246D2B20A2392FBF3FC03FB1C222300CA
:10130000DBB203449A74641C4A46D2B20A2392FBAD
:10131000F3F22300DBB203449A74641C4A46D2B24F
:101320000A2392FBF3FC03FB1C222300DBB20344E1
:101330009A74641C9DF80A200A2392FBF3F223009E
:10134000DBB203449A74641C9DF80A200A2392FBC2
:10135000F3FC03FB1C222300DBB218448274641CE0
:101360004046C0B2042821D1DFF8BC08007800282C
:101370000CD000200190002000900123B2A2012196
:1013800015F13000C0B2FFF7C5F90FE00020019061
:10139000002000900123DFF88C08397900EB8102EE
:1013A000012115F13000C0B2FFF7B4F9761C5FF0EF
:1013B000000B5846C0B2022815DA03A85946C9B234
:1013C000425C3100C9B22B00DBB25C46E4B2DFF80C
:1013D0007C05407E00FB04331800C0B2FEF7F6FF28
:1013E0001BF1010BE5E75846C0B2042811DA03A847
:1013F0005946C9B2425C3100C9B2DFF85005407E9F
:1014000000FB0B50401CC0B2FEF7E0FF1BF1010BCC
:10141000E9E75846C0B2062811DA03A85946C9B20E
:10142000425C3100C9B2DFF82405407E00FB0B505E
:10143000801CC0B2FEF7CAFF1BF1010BE9E70021D7
:101440004046C0B205285AD1DFF8DC0700780028F2
:101450000BD003A820220B00DBB2C254491C20226F
:101460000B00DBB2C254491C1FE0388880B26422F2
:1014700090FBF2F302FB1300ADF8080003A8BDF8DF
:1014800008200A2392FBF3F230320B00DBB2C25485
:10149000491CBDF808200A2392FBF3F403FB142235
:1014A00030320B00DBB2C254491C03A8BA780A23BD
:1014B00092FBF3F230320B00DBB2C254491CBA7813
:1014C0000A2392FBF3F403FB142230320B00DBB24D
:1014D000C254491CFA780A2392FBF3F230320B0013
:1014E000DBB2C254491CFA780A2392FBF3F403FBE3
:1014F000142230320B00DBB2C254491C03E14046D7
:10150000C0B2062858D1388880B2642290FBF2F32A
:1015100002FB1300ADF8080003AABDF808000A2377
:1015200090FBF3F030300B00DBB2D054491CBDF817
:1015300008000A2390FBF3F403FB140030300B0087
:10154000DBB2D054491CDFF8E006007800280AD04E
:1015500020200B00DBB2D054491C20200B00DBB252
:10156000D054491C13E0B8780A2390FBF3F03030D4
:101570000B00DBB2D054491CB8780A2390FBF3F47B
:1015800003FB140030300B00DBB2D054491CF87858
:101590000A2390FBF3F030300B00DBB2D054491C2F
:1015A000F8780A2390FBF3F403FB140030300B00AF
:1015B000DBB2D054491CA6E04046C0B207285AD13D
:1015C000388880B2642290FBF2F302FB1300ADF87E
:1015D000080003AABDF808000A2390FBF3F030309E
:1015E0000B00DBB2D054491CBDF808000A2390FB65
:1015F000F3F403FB140030300B00DBB2D054491C71
:10160000B8780A2390FBF3F030300B00DBB2D054F3
:10161000491CB8780A2390FBF3F403FB1400303024
:101620000B00DBB2D054491CDFF8FC050078002821
:101630000CD020200B00DBB2D054491C20200B0022
:10164000DBB2D054491C5EE020202000F8780A2349
:1016500090FBF3F030300B00DBB2D054491CF8782B
:101660000A2390FBF3F403FB140030300B00DBB2D1
:10167000D054491C47E0388880B2642290FBF2F3D2
:1016800002FB1300ADF8080003A8BDF808200A23E8
:1016900092FBF3F230320B00DBB2C254491CBDF8AE
:1016A00008200A2392FBF3F403FB142230320B00D0
:1016B000DBB2C254491CBA780A2392FBF3F23032EF
:1016C0000B00DBB2C254491CBA780A2392FBF3F434
:1016D00003FB142230320B00DBB2C254491CFA78EF
:1016E0000A2392FBF3F230320B00DBB2C254491CE6
:1016F000FA780A2392FBF3F403FB142230320B0036
:10170000DBB2C254491C00242000C0B202280FDA08
:1017100003A82100C9B2425C3100C9B28B48407EA7
:1017200000FB04502230C0B2FEF750FE641CEBE711
:101730002000C0B204280FDA03A82100C9B2425C1D
:101740003100C9B28148407E00FB04502230C0B253
:10175000FEF73CFE641CEBE72000C0B206280FDA5F
:1017600003A82100C9B2425C3100C9B27748407E6B
:1017700000FB04502230C0B2FEF728FE641CEBE7E9
:1017800005B0BDE8F08F0000986C0108006B0108FF
:101790000C6B0108A06C0108A86C010858670108CF
:1017A00040420F00A08601002DE9FC4F83B00400E9
:1017B0000D0016000021F079401C8DF80000B7796B
:1017C00096F805809DF800003C2811DB00208DF87C
:1017D00000007F1C3800C0B23C2809DB0020070055
:1017E00018F101084046C0B2182801DB00208046ED
:1017F0000DF1040970790A2290FBF2F00A00D2B2CE
:1018000009F80200491C70790A2290FBF2F302FBEE
:1018100013000A00D2B209F80200491CB0790A226A
:1018200090FBF2F00A00D2B209F80200491CB0792C
:101830000A2290FBF2F302FB13000A00D2B209F86D
:101840000200491C00200100C9B2062913DA010078
:10185000C9B219F801103D4A0300DBB21A441173F2
:101860000100C9B219F8011030310200D2B209F8F2
:101870000210401CE7E70021DFF8D0A04246D2B2B8
:101880000A2392FBF3F20B00DBB253449A74491C17
:101890004246D2B20A2392FBF3FC03FB1C220B004C
:1018A000DBB253449A74491C3A00D2B20A2392FB29
:1018B000F3F20B00DBB253449A74491C3A00D2B2E3
:1018C0000A2392FBF3FC03FB1C220B00DBB2534404
:1018D0009A74491C5FF0000B5846C0B2022818DA0F
:1018E0009AF81B305846C0B219F800202900C9B236
:1018F000A4465FFA8CFCDE465FFA8EFE9AF8190069
:1019000000FB0ECE7046C0B2FEF712FE1BF1010BBB
:10191000E2E75846C0B2042812DA9AF81B3058465B
:10192000C0B219F800202900C9B29AF8190000FBCA
:101930000B40C01CC0B2FEF7FBFD1BF1010BE8E73A
:1019400005B0BDE8F08F0000C84B0020EC4400203B
:101950007CB504000D0016000020019000200090CE
:10196000002332002900C9B22000C0B2FEF7D2FE27
:1019700073BD2DE9F04385B004002000C0B20128FA
:1019800040F03C81042002F059FF002840F04681DD
:101990006421042002F05FFFDFF8308B98F8ED003F
:1019A000002840F0B78098F8EC00002806D0022804
:1019B00015D00BD3042877D057D393E0DFF8102B42
:1019C000DFF8101B02A802F031FE8BE0DFF8080BF5
:1019D000028BDFF8081B02A802F028FE82E098F8CC
:1019E0000001052808D1DFF8F81A02A802F01EFE4F
:1019F000042088F8EC0037E0DFF8E89A99F8042032
:101A0000DFF8E41A02A802F011FE99F80E0000288F
:101A10000BD0022811D00CD3042816D011D30628DD
:101A20001BD016D307281CD01EE04A208DF80D00CD
:101A30001AE047208DF80D0016E038208DF80D00D3
:101A400012E050208DF80D000EE041208DF80D00C1
:101A50000AE043208DF80D0006E04F208DF80D00C0
:101A600002E044208DF80D003CE0DFF8780A408960
:101A70000700380080B2B0F57A7F05D1DFF86C1A24
:101A800002A802F0D3FD0EE0380080B2B0F57A7FF4
:101A900002DB40F2E73007003A0092B2DFF8501A5A
:101AA00002A802F0C3FD1DE0DFF8380A0089070034
:101AB000380080B2B0F57A7F05D1DFF8381A02A875
:101AC00002F0B4FD0EE0380080B2B0F57A7F02DBA0
:101AD00040F2E73007003A0092B2DFF81C1A02A881
:101AE00002F0A4FD98F8EC00401C88F8EC0098F88F
:101AF000EC00052802DB002088F8EC002000C0B2D2
:101B0000019000200090002302AA02210020FEF78D
:101B100001FE6DE098F8ED00292862DA002001004E
:101B2000C9B2082914DA0100C9B2414491F84E1033
:101B30000200D2B2424492F85620D2B2D20952EAFE
:101B400041020100C9B2414481F84E20401CE6E741
:101B500000263000C0B2082814DA3000C0B2404479
:101B600090F856003100C9B2414491F8A610C9B2AC
:101B7000C90951EA40013000C0B2404480F8561013
:101B8000761CE6E7002005002800C0B205282FDA01
:101B9000002006003000C0B2082820DA2800C0B2B9
:101BA00008EBC0003100C9B208442900C9B208EBF3
:101BB000C1013200D2B2114491F8A6102A00D2B26B
:101BC00008EBC2023300DBB21A4492F8AE20D2B264
:101BD000D20952EA410280F8A620761CDAE76D1C91
:101BE000D2E798F8ED00312802DBFF2088F8ED00FD
:101BF00098F8ED00401C88F8ED000FE000200190FF
:101C00000020009001230748DFF8C01891F8E21087
:101C100000EB810201217020FEF77CFD05B0BDE8DC
:101C2000F0830000C0660108C94B00202DE9F84F81
:101C300088B004002000C0B2012840F03A8204209D
:101C400002F0FCFD002840F04D82DFF8808898F813
:101C5000FC00632831D14FF4FA71042002F0FBFD3F
:101C600098F8ED0000280ED0002088F8ED00002044
:101C70000190002000900023DFF8582D0221202041
:101C8000FEF748FD2EE2012088F8ED00DFF8488DD0
:101C900000200190002000900023424600212020D7
:101CA000FEF738FD002001900020009000234246FE
:101CB00002212020FEF72EFD14E21E21042002F056
:101CC000CAFD98F8ED00401C88F8ED0098F8ED008A
:101CD000002840F0AB8198F8EC0000281DD00228C5
:101CE00000F0848026D3042800F0AE80C0F09580F8
:101CF000062800F0BB80C0F0AD80082800F03281DB
:101D0000C0F000810A2800F03E81C0F033810C2829
:101D100000F04A81C0F0408158E198F8E10000905D
:101D200098F8E030B8F8DE20DFF8A41D02A802F031
:101D30007DFC4BE198F80001052808D1DFF89C1CD8
:101D400002A802F073FC032088F8EC0037E0DFF80B
:101D5000949799F80420DFF8901702A802F066FC27
:101D600099F80E0000280BD0022811D00CD30428BB
:101D700016D011D306281BD016D307281CD01EE07E
:101D80004A208DF80D001AE047208DF80D0016E06E
:101D900038208DF80D0012E050208DF80D000EE077
:101DA00041208DF80D000AE043208DF80D0006E07B
:101DB0004F208DF80D0002E044208DF80D0098F8BA
:101DC000E4000F2811DB98F8E4001A280DDA98F8DF
:101DD000E300DFF810170979884206D098F8FC0074
:101DE000062802D1052088F8FC00EFE0DFF8F406B1
:101DF00040890700380080B2B0F57A7F05DBDFF854
:101E00003C1D02A802F012FC06E03A0092B2DFF894
:101E1000301D02A802F00AFCD8E0DFF8C8060089ED
:101E20000700380080B2B0F57A7F05DBDFF8141DBB
:101E300002A802F0FBFB06E03A0092B2DFF8081DB0
:101E400002A802F0F3FBC1E0DFF84C1D02A802F08B
:101E5000EDFBBBE0DFF88006C1790091C3788278A2
:101E6000DFF8381D02A802F0E1FBAFE0B8F8EE00A1
:101E7000070098F8EB00002817D0380080B26428DB
:101E800001DB632007003B009BB20A2093FBF0F1CB
:101E900000FB1133380080B20A2190FBF1F2DFF829
:101EA000001D02A802F0C2FB2BE03A0092B20A2009
:101EB00092FBF0F100FB1122DFF8E81C02A802F00F
:101EC000B5FB2000C0B2019001200090022302AABD
:101ED00000211320FEF71EFC380080B20A2190FB7F
:101EE000F1F2DFF8C41C02A802F0A0FB2000C0B28F
:101EF000019001200090022302AA00210020FEF799
:101F000009FC63E0B8F8F00007003A0092B20A203A
:101F100092FBF0F100FB1122DFF8881C02A802F00E
:101F200085FB2000C0B2019001200090022302AA8C
:101F300000211320FEF7EEFB380080B20A2190FB4F
:101F4000F1F2DFF8681C02A802F070FB2000C0B2BA
:101F5000019001200090022302AA00210020FEF738
:101F6000D9FB33E0DFF86825DFF8441C02A802F053
:101F70005DFB2BE0DFF86005028BDFF8381C02A860
:101F800002F054FB22E0DFF85005027CDFF8281C49
:101F900002A802F04BFB19E0DFF8202CDFF8201C30
:101FA00002A802F043FB11E05FF00909DFF8141CFE
:101FB000DFF82405C27B0920424301EB020A0DF140
:101FC000080B4A465146584603F0EEFA98F8EC00E2
:101FD000062803DB98F8EC0008281ADBDFF8841DDC
:101FE00005A802F023FB2000C0B201900120009060
:101FF000022305AA00210020FEF78CFB2000C0B2BE
:10200000019000200090002302AA02210020FEF788
:1020100081FB98F8EC00401C88F8EC0098F8EC0084
:1020200008285FDB002088F8EC005BE098F8ED0002
:10203000592803DBFF2088F8ED0053E098F8ED0005
:1020400009284FDA002006003000C0B2072819DA4C
:10205000042005002800C0B2082811DA2800C0B208
:1020600008EBC0003100C9B208442900C9B208EB2E
:10207000C1013200D2B21144C97F81776D1CE9E7FA
:10208000761CE1E7042005002800C0B2082829DA00
:102090002800C0B208EBC00098F8ED10084490F892
:1020A00085002900C9B208EBC10181F825006D1C2B
:1020B000EAE7DFF8180490F8E110009190F8E030BA
:1020C000B0F8DE20DFF8081A02A802F0AFFA20000C
:1020D000C0B2019000200090002302AA022100203B
:1020E000FEF718FB09B0BDE8F08F2DE9FE430400B0
:1020F0000D0016001F0000213088642290FBF2F8CA
:1021000002FB18083800C0B2002805D0DFF8580CD0
:10211000027892F0010202703800C0B2052865D141
:10212000DFF8440C0078002815D0684620220B0008
:10213000DBB2C254491C20220B00DBB2C254491C42
:1021400020220B00DBB2C254491C20220B00DBB260
:10215000C254491C20E0684632220B00DBB2C25454
:10216000491C30220B00DBB2C254491C4246D2B299
:102170000A2392FBF3F230320B00DBB2C254491C4B
:102180004246D2B20A2392FBF3FC03FB1C223032FC
:102190000B00DBB2C254491C6846B2780A2392FB9A
:1021A000F3F230320B00DBB2C254491CB2780A237E
:1021B00092FBF3FC03FB1C2230320B00DBB2C25457
:1021C000491CF2780A2392FBF3F230320B00DBB2A7
:1021D000C254491CF2780A2392FBF3FC03FB1C2235
:1021E00030320B00DBB2C254491C04E13800C0B2EB
:1021F000062859D16A4632200B00DBB2D054491C64
:1022000030200B00DBB2D054491C4046C0B20A2338
:1022100090FBF3F030300B00DBB2D054491C404649
:10222000C0B20A2390FBF3FC03FB1C0030300B0010
:10223000DBB2D054491CDFF8300B007800280AD0FC
:1022400020200B00DBB2D054491C20200B00DBB255
:10225000D054491C13E0B0780A2390FBF3F03030DF
:102260000B00DBB2D054491CB0780A2390FBF3FC7E
:1022700003FB1C0030300B00DBB2D054491CF0785B
:102280000A2390FBF3F030300B00DBB2D054491C32
:10229000F0780A2390FBF3FC03FB1C0030300B00AA
:1022A000DBB2D054491CA6E03800C0B2072859D18F
:1022B0006A4632200B00DBB2D054491C30200B00A0
:1022C000DBB2D054491C4046C0B20A2390FBF3F065
:1022D00030300B00DBB2D054491C4046C0B20A2358
:1022E00090FBF3FC03FB1C0030300B00DBB2D0543E
:1022F000491CB0780A2390FBF3F030300B00DBB2BE
:10230000D054491CB0780A2390FBF3FC03FB1C005B
:1023100030300B00DBB2D054491CDFF84C0A007897
:1023200000280AD020200B00DBB2D054491C20200A
:102330000B00DBB2D054491C5DE0F0780A2390FB1F
:10234000F3F030300B00DBB2D054491CF0780A2394
:1023500090FBF3FC03FB1C0030300B00DBB2D054CD
:10236000491C48E0684632220B00DBB2C254491CCB
:1023700030220B00DBB2C254491C4246D2B20A23BF
:1023800092FBF3F230320B00DBB2C254491C4246DE
:10239000D2B20A2392FBF3FC03FB1C2230320B0067
:1023A000DBB2C254491CB2780A2392FBF3F23032FA
:1023B0000B00DBB2C254491CB2780A2392FBF3FC37
:1023C00003FB1C2230320B00DBB2C254491CF278F2
:1023D0000A2392FBF3F230320B00DBB2C254491CE9
:1023E000F2780A2392FBF3FC03FB1C2230320B0031
:1023F000DBB2C254491C5FF000094846C0B2042851
:1024000018DADFF86809C37E69464A46D2B28A5CA8
:102410002900C9B2A4465FFA8CFCCE465FFA8EFE54
:10242000407E00FB0ECC6046C0B2FEF781F819F189
:102430000109E2E74846C0B2062812DADFF82C09A3
:10244000C37E69464A46D2B28A5C2900C9B2407E40
:1024500000FB0940C01CC0B2FEF76AF819F101097F
:10246000E8E74846C0B2082812DADFF80009C37E60
:1024700069464A46D2B28A5C2900C9B2407E00FB56
:102480000940801DC0B2FEF753F819F10109E8E7D1
:102490000122032114F11C00C0B2FDF781FE0122CC
:1024A000032114F11D00C0B2FDF77AFE01220321C1
:1024B00014F12D00C0B2FDF773FE0122032114F1C7
:1024C0002E00C0B2FDF76CFEBDE8F783EC4400209F
:1024D000384B0020186B0108304B0020D4690108EC
:1024E000246B0108084B0020E4690108306B0108E7
:1024F0003C6B0108486B0108546B010870B504007F
:102500000D0000263000C0B2022849DA2A00D2B2FB
:10251000012116EB84100E30C0B2FDF741FE2A00F7
:10252000D2B2022116EB84100E30C0B2FDF738FE95
:102530002A00D2B2042116EB84100E30C0B2FDF78F
:102540002FFE2A00D2B2052116EB84100E30C0B245
:10255000FDF726FE2A00D2B2012116EB84101F30AF
:10256000C0B2FDF71DFE2A00D2B2022116EB841084
:102570001F30C0B2FDF714FE2A00D2B2042116EBC0
:1025800084101F30C0B2FDF70BFE2A00D2B2052125
:1025900016EB84101F30C0B2FDF702FE761CB1E7C7
:1025A00070BD38B504000D002A00D2B2022120000F
:1025B000C0B280010A30C0B2FDF7F2FD2A00D2B2EB
:1025C00005212000C0B280010A30C0B2FDF7E8FD4D
:1025D0002A00D2B202212000C0B280011530C0B260
:1025E000FDF7DEFD2A00D2B205212000C0B2800135
:1025F0001530C0B2FDF7D4FD31BD70B504000D003B
:1026000000263000C0B2022825DA2A00D2B2012109
:1026100016EB84100E30C0B2FDF7C2FD2A00D2B214
:10262000022116EB84100E30C0B2FDF7B9FD2A006E
:10263000D2B2042116EB84100E30C0B2FDF7B0FD0B
:102640002A00D2B2052116EB84100E30C0B2FDF77D
:10265000A7FD761CD5E770BD2DE9FE4F06000F00E3
:10266000904699460C9C0D9D00212800C0B2002880
:1026700005D0DFF8FC06027892F001020270280013
:10268000C0B209283FD1DFF8E806007800280BD057
:10269000684620220B00DBB2C254491C20220B00EA
:1026A000DBB2C254491C16E068464246D2B20A2345
:1026B00092FBF3F230320B00DBB2C254491C4246AB
:1026C000D2B20A2392FBF3FC03FB1C2230320B0034
:1026D000DBB2C254491C68464A46D2B20A2392FB76
:1026E000F3F230320B00DBB2C254491C4A46D2B27C
:1026F0000A2392FBF3FC03FB1C2230320B00DBB2FB
:10270000C254491CB9E02800C0B20A283DD16A462B
:102710004046C0B20A2390FBF3F030300B00DBB22E
:10272000D054491C4046C0B20A2390FBF3FC03FB83
:102730001C0030300B00DBB2D054491CDFF83006EF
:10274000007800280AD020200B00DBB2D054491CAE
:1027500020200B00DBB2D054491C8EE04846C0B2AA
:102760000A2390FBF3F030300B00DBB2D054491C4D
:102770004846C0B20A2390FBF3FC03FB1C00303038
:102780000B00DBB2D054491C77E02800C0B20B2804
:1027900073D16A464046C0B20A2390FBF3F0303052
:1027A0000B00DBB2D054491C4046C0B20A2390FB58
:1027B000F3FC03FB1C0030300B00DBB2D054491C8F
:1027C0004846C0B20A2390FBF3F030300B00DBB276
:1027D000D054491C4846C0B20A2390FBF3FC03FBCB
:1027E0001C0030300B00DBB2D054491CDFF88005F0
:1027F0000078002814D020200B00DBB2D054491CF4
:1028000020200B00DBB2D054491C20200B00DBB28F
:10281000D054491C20200B00DBB2D054491C2CE0C2
:102820002000C0B2002814D041200B00DBB2D054ED
:10283000491C4C200B00DBB2D054491C4F200B002C
:10284000DBB2D054491C4E200B00DBB2D054491CE3
:1028500013E041200B00DBB2D054491C4C200B008C
:10286000DBB2D054491C4F200B00DBB2D054491CC2
:1028700046200B00DBB2D054491C2800C0B20B2804
:102880002EDA2000C0B2002815D0684641220B0085
:10289000DBB2C254491C4C220B00DBB2C254491CAF
:1028A0004F220B00DBB2C254491C4E220B00DBB29C
:1028B000C254491C14E0684641220B00DBB2C254EA
:1028C000491C4C220B00DBB2C254491C4F220B00A6
:1028D000DBB2C254491C46220B00DBB2C254491C75
:1028E0005FF0000A5046C0B2022819DADFF87CE433
:1028F0009EF81B3068465146C9B2425C3900C9B2E5
:10290000B4465FFA8CFC5046C0B29EF819E00EFB4C
:1029100000CE7046C0B2FDF70BFE1AF1010AE1E7E6
:102920005046C0B2042812DADFF84004C37E69467C
:102930005246D2B28A5C3900C9B2407E00FB0A60BE
:10294000C01CC0B2FDF7F4FD1AF1010AE8E75046D9
:10295000C0B2082812DADFF81404C37E6946524672
:10296000D2B28A5C3900C9B2407E00FB0A60801D89
:10297000C0B2FDF7DDFD1AF1010AE8E75FF0000BD8
:102980005846C0B2022822DA2A00D2B201211BF135
:102990000E00C0B2FDF704FC2A00D2B202211BF1E6
:1029A0000E00C0B2FDF7FCFB2A00D2B204211BF1DD
:1029B0000E00C0B2FDF7F4FB2A00D2B205211BF1D4
:1029C0000E00C0B2FDF7ECFB1BF1010BD8E7BDE830
:1029D000F78F0000606B01086C6B0108786B0108D1
:1029E0001CB50400DFF88C03017891F0010101703F
:1029F000007800280DD000200190DFF87003C07E21
:102A000000900223DFF8702300210020FDF782FEF2
:102A10003AE02000C0B2012806D035D303281CD0EC
:102A20000FD3042825D02FE000200190CF48C07E8E
:102A300000900223DFF8442300210020FDF76AFE06
:102A400022E000200190C948C07E00900223CC4AB9
:102A500000210020FDF75EFE16E000200190C34833
:102A6000C07E00900223C74A00210020FDF752FEDD
:102A70000AE000200190BD48C07E00900223C24AB7
:102A800000210020FDF746FE13BDF8B504000D003F
:102A9000BE4F5FF48010386000263000C0B20828B6
:102AA00012DA2000C0B2FDF721FB2000C0B20A28D4
:102AB00004D1681EC0B2FDF719FB03E02800C0B2C4
:102AC000FDF714FB761CE8E710203860F1BD00002C
:102AD000F469010870B40400E4B2002C03D0022CA5
:102AE0000BD005D30DE0002422000824230008E0C9
:102AF000082422001024230003E0002422001124D3
:102B00002300140025001E00EDB2F6B2B54213D228
:102B1000002529000D00EDB2082D0BDA934D26009B
:102B2000F6B205EBC6050E00F6B235440026AE77C8
:102B3000491CEFE7641CE5E770BC7047846B010833
:102B4000906B01089C6B0108A86B0108F8B5874CD5
:102B50000020607000263000C0B2082819DA8B4FC0
:102B60005FF480103860002005002800C0B20828FB
:102B700008DA701CC0B2FDF7B9FA0020FDF7B6FA0A
:102B80006D1CF2E70120FDF7E3FA10203860761C97
:102B9000E1E701206070F1BDB46B0108046A01082F
:102BA000146A0108B06C0108B86C0108C06C010817
:102BB000C06B0108CC6B0108D86B0108414B0020A9
:102BC000E46B0108146301082DE9F8438027022013
:102BD000FFF780FFFFF7BAFF0A2001F047FE002150
:102BE0000F20FFF752FF4FF4FA7001F03FFE002173
:102BF0000C20FFF74AFF00210920FFF746FF0721BD
:102C00000B20FFF742FF594C217F0A20FFF73DFFC1
:102C100001210C20FFF739FF012060705FF00008F0
:102C20004046C0B240281ADA4046C0B230F0070031
:102C30002044807F38434146C9B231F00701214426
:102C40008877FFB27F083800C0B2002801D1802009
:102C50000700052001F00AFE18F10108E0E75FF027
:102C600001094846C0B208280BDA01204946C9B21A
:102C7000214481F85600052001F0F8FD19F1010901
:102C8000EFE7012540263000C0B2002820D03000F8
:102C9000C0B2401E082190FBF1F004EBC0003100EF
:102CA000C9B2491E082291FBF2F104EBC10191F86F
:102CB0002510294380F825106D002800C0B2002897
:102CC00001D101200500052001F0D0FD761EDAE7D4
:102CD00006273800C0B2002809D080203900C9B2C8
:102CE00021448877052001F0C1FD7F1EF1E74FF4F4
:102CF000487001F0BBFD0020FFF7ECFE5FF080089C
:102D00005FF000094846C0B2402824DA00200700DE
:102D10003800C0B208280BDA4846C0B230F00700CD
:102D200020443900C9B2084480F81E807F1CEFE7B8
:102D30005FFA88F85FEA58084046C0B2002801D11F
:102D4000802080461E2001F091FD0020FFF7C2FE8A
:102D500019F10109D6E7FFF7F9FE642001F086FDBD
:102D6000BDE8F183F06B0108CA4B0020EC44002061
:102D7000CB4B0020CC4B0020FC6B0108086C0108F9
:102D8000146C0108206C01082C6C0108100801402B
:102D90002DE9F84785B00C2100220DF108084046C6
:102DA00001F0D2FB02F0DFFC012803D10120DFF8A3
:102DB0000C1B0870DFF8088B98F80400002824D05A
:102DC000022800F06A81C0F0C180042800F0B782B8
:102DD000C0F0CA81062800F05882C0F01C83082881
:102DE00000F08C84C0F083830A2800F01985C0F0BD
:102DF00001840C2800F02887C0F063860E2801F0BB
:102E00002781C1F0578001F0C6B9022001F016FDFC
:102E1000002840F099803221022001F01CFD98F832
:102E20000300411C88F80310C0B20E2815DB0020F7
:102E300088F80300D8F80820501CC8F808000021C2
:102E40000020FDF7F7FDD8F80800DFF8781A88426F
:102E50007ADB0020C8F8080076E098F8190098F8A6
:102E60000310884270D3002007003800C0B2062843
:102E70006ADA3800C0B24044007B3900C9B241442C
:102E8000897C88425ED001233800C0B24044827CF5
:102E90003032D2B200218020FDF74AFB002081466B
:102EA0004846C0B298F81910491E884227DA002017
:102EB0000600300098F81A10C0B288421CD23100C7
:102EC000C9B298F8190000FB0790401CC0B2FDF78A
:102ED00005FA05002A00D2B23100C9B23B00DBB2CC
:102EE00098F819C04846C0B20CFB03031800C0B2E2
:102EF000FDF756F9761CDCE719F10109D0E700204F
:102F00000600300098F81A10C0B288421AD2310078
:102F1000C9B298F803007F30C0B2FDF7DFF90500B1
:102F20002A00D2B23100C9B23B00DBB298F819C016
:102F30004846C0B20CFB03031800C0B2FDF730F9DD
:102F4000761CDEE77F1C90E701F025B9022001F036
:102F500075FC002840F09F803221022001F07BFCAC
:102F600098F80300411C88F80310C0B20E2816DB45
:102F7000002088F80300D8F80820501CC8F8080082
:102F800000210020FDF756FDD8F80800DFF83419BD
:102F90008842C0F280800020C8F808007BE098F8E2
:102FA0001A0098F80310884275D3002007003800F3
:102FB000C0B206286FDA3800C0B24044007B390046
:102FC000C9B24144897C884263D03800C0B24044D1
:102FD000827C3032D2B200218020FDF7ACF9002093
:102FE00006003000C0B298F81A10491E88422BDA49
:102FF00000208146484698F81910C0B2884221D274
:10300000711CC9B23A00D2B298F819304846C0B221
:1030100003FB02021000C0B2FDF760F905002A00B0
:10302000D2B23100C9B23B00DBB298F819C04846B1
:10303000C0B20CFB03031800C0B2FDF7B1F819F1E0
:103040000109D7E7761CCCE700208146484698F86E
:103050001910C0B288421CD298F80300411EC9B2B0
:10306000B9F18000C0B2FDF739F905002A00D2B2EB
:103070003100C9B23B00DBB298F819C04846C0B273
:103080000CFB03031800C0B2FDF78AF819F101091F
:10309000DCE77F1C8BE701F07EB8022001F0CEFB5D
:1030A00000285FD13221022001F0D5FB98F80300FF
:1030B000411C88F80310C0B2402810DB40F6B8303D
:1030C00001F0D4FB0220FFF705FD072088F804007B
:1030D000002088F80300002088F8180042E0002053
:1030E00007003800C0B210283CDA0020040020009D
:1030F000C0B2082834DA3800C0B20F2811D1380025
:10310000C0B208EBC0002100C9B208443900C9B2FE
:1031100008EBC1012200D2B21144897F49008177B6
:103120001CE03800C0B208EBC0002100C9B208445E
:103130003900C9B208EBC1012200D2B21144897F23
:103140003A00D2B208EBC2022300DBB21A4492F872
:103150002620D2B2D20952EA41028277641CC6E725
:103160007F1CBEE701F017B8022001F067FB0028C2
:1031700040F089803221022001F06DFB98F80300B5
:10318000411C88F80310C0B2812811DB0020019097
:10319000002000900223DFF8C02B00214020FDF723
:1031A000B9FA002088F80300022088F804006AE0D9
:1031B000102007003800C0B2002864D000200400AE
:1031C0002000C0B208285CDA3800C0B202283CDB1C
:1031D0003800C0B210281BD13800C0B208EBC000C4
:1031E0002100C9B208443900C9B208EBC10122006C
:1031F000D2B21144897FC9B23A00D2B208EBC202FE
:103200002300DBB21A44927DD20152EA5102827746
:103210003800C0B208EBC0002100C9B20844390030
:10322000C9B208EBC1012200D2B21144897DC9B2F2
:103230003A00D2B208EBC2022300DBB21A44927BFE
:10324000D20152EA5102827519E03800C0B208EB8F
:10325000C0002100C9B208443900C9B208EBC1015D
:103260002200D2B21144897DC9B22200D2B24244B6
:1032700092F89E2012F0800252EA51028275641C7C
:103280009EE77F1E96E700F086BF022001F0D6FA87
:10329000002852D13221022001F0DDFA98F8030013
:1032A000411C88F80310C0B2102807DB002088F802
:1032B000030098F8050088F804003EE098F81A002A
:1032C00098F80310884238D3002006003000C0B2BE
:1032D00007281ADA002081464846C0B2082812DAC8
:1032E0004846C0B208EBC0003100C9B208444946A4
:1032F000C9B208EBC1013200D2B21144C97F817753
:1033000019F10109E8E7761CE0E70020814648460C
:10331000C0B2082811DA4846C0B208EBC00098F8DD
:103320000310084490F85D004946C9B208EBC1019A
:1033300081F8250019F10109E9E700F02CBF02200E
:1033400001F07CFA002864D13221022001F083FAD6
:1033500098F80300411C88F80310C0B2102819DB4C
:10336000002088F80300052088F804000220FFF7F9
:10337000B1FB18F1DE0A98F8E830524600214020EF
:10338000FDF7D6FB98F8E830524600210020FEF702
:10339000ACFE3EE098F81A0098F80310884238D343
:1033A000002006003000C0B207281ADA002081464B
:1033B0004846C0B2082812DA4846C0B208EBC0003E
:1033C0003100C9B208444946C9B208EBC101320014
:1033D000D2B21144C97F817719F10109E8E7761C5F
:1033E000E0E7002081464846C0B2082811DA484686
:1033F000C0B208EBC00098F80310084490F85D00D4
:103400004946C9B208EBC10181F8250019F101094B
:10341000E9E700F0C0BE022001F010FA002864D1F4
:103420003221022001F017FA98F80300411C88F8B5
:103430000310C0B2102819DB002088F803000A200E
:1034400088F804000220FFF745FB18F1DE0A98F81F
:10345000E830524600210020FDF76AFB98F8E8307A
:10346000524600214020FEF740FE3EE098F81A0048
:1034700098F80310884238D3072006003000C0B205
:1034800000281AD0002081464846C0B2082812DA27
:103490004846C0B208EBC0003100C9B208444946F2
:1034A000C9B208EBC1013200D2B21144497F817721
:1034B00019F10109E8E7761EE0E700208146484659
:1034C000C0B2082811DA4846C0B208EBC00098F82C
:1034D00003104942084490F866004946C9B208EB17
:1034E000C101887719F10109E9E700F054BE022013
:1034F00001F0A4F900287BD10221022001F0ABF9F0
:1035000098F8180000282DD198F805000A280CD149
:1035100098F8E83018F1DE0200214020FDF708FBA2
:1035200001210120FEF7EAFF16E098F805000B28BC
:1035300007D1002318F1DE0200214020FDF754FDE1
:103540000AE098F805000C2806D1002318F1DE02E5
:1035500000214020FEF728F998F81800401C88F850
:10356000180045E098F80300401C88F8030098F81C
:103570001800D0F1400098F80310884225DB0020A5
:1035800006003000C0B2082832DA00223100C9B289
:1035900098F80300D0F14000C0B2FCF701FE310002
:1035A000C9B298F818003F30C0B2FCF797FE05008A
:1035B0002A00D2B23100C9B298F80300D0F13F001E
:1035C000C0B2FCF7EDFD761CDBE7002088F80300B5
:1035D00098F81800401C88F8180098F8180040283F
:1035E00006DB98F8050088F804000F2088F803002F
:1035F00000F0D1BD022001F021F900287CD14FF468
:103600009671022001F027F9DFF890AB9AF80000DC
:1036100090F001008AF8000098F8E800002804D132
:1036200098F8E900FFF7DCF966E098F8E800002870
:1036300011D098F8E80005280DDA98F8E83018F16C
:10364000DE0200210020FDF773FA9AF80010002036
:10365000FEF754FF50E098F8E80005280CDB98F8D6
:10366000E800082808DA98F8E83018F1DE020021AE
:103670000020FEF73AFD3FE098F8E800082825D141
:1036800098F805000A2837DB98F805000D2833DA8A
:103690009AF8000000280CD00020019098F81B0038
:1036A00000900223DFF8F82A00210020FDF732F80D
:1036B00022E00020019098F81B0000900223DFF820
:1036C000E42A00210020FDF725F815E098F8E8002D
:1036D000092811DB98F8E8000C280DDA98F8E800C2
:1036E000019098F8F400009098F8F33098F8F220E0
:1036F00000210020FEF7B0FF00F04DBD022001F0D8
:103700009DF8002840F08A803221022001F0A3F8C1
:1037100098F80300411C88F80310C0B21F2840DB52
:10372000002088F8030098F8EA0001280ED1022052
:1037300088F8EA000120FFF7CDF9B8F8F03098F8E2
:10374000EA2000214020FDF76DF867E098F8EA00D4
:1037500002281BD1082088F8EA000120FFF7BAF9F7
:1037600098F8E500801C88F8E50098F8E83018F132
:10377000DE0200214020FDF7DBF998F8E500801E0D
:1037800088F8E5000020FEF7F4F847E098F8EA0032
:10379000082843D10A2088F80400002088F8ED00AA
:1037A0003CE098F80300092838DA002006003000D1
:1037B000C0B207281ADA002081464846C0B208285D
:1037C00012DA4846C0B208EBC0003100C9B2084462
:1037D0004946C9B208EBC1013200D2B21144C97FD7
:1037E000817719F10109E8E7761CE0E700208146BE
:1037F0004846C0B2082811DA4846C0B208EBC000FB
:1038000098F80310084490F85D004946C9B208EBE7
:10381000C10181F8250019F10109E9E700F0BBBCFD
:10382000022001F00BF8002840F04A81234801787B
:10383000012940F0928000210170002088F80300E7
:1038400098F8E50000287BD198F8E400002818D10A
:1038500098F8E30009280EDB98F81D0000280AD02C
:1038600098F8E200002806D098F8E200062802DA6C
:10387000062001F09BF898F8FF0010F0DF0088F8B0
:10388000FF0098F8E30098F8F21088421CD198F8ED
:10389000E40098F8F310884216D198F8F400012853
:1038A00012D198F8E200002815D098F8E200062816
:1038B00011DA012088F8F5000DE000BFCD4B0020A3
:1038C000EC44002040420F0098F8F500012802D196
:1038D000002088F8F50098F8E40005281CDB98F82B
:1038E000FF00800618D498F8DA00152814DB98F841
:1038F000FC00062807D098F8FC0064280CD198F842
:103900000001002808D0002088F8FC0098F8FF008B
:1039100050F0040088F8FF000020DFF880180870DD
:103920000D2088F804000220FFF7D4F8002088F862
:10393000EA00002318F1DE0200214020FEF7D5FB4B
:1039400098F8E83018F1DE0200210020FDF7F0F8C9
:1039500001210020FEF7D2FDB2E05FF0000A322123
:10396000022000F078FF98F80300401C88F803005C
:1039700098F80300092880F28080002007003800B2
:10398000C0B2062880F29C803800C0B24044007B60
:103990003900C9B24144897C88426CD098F81B3008
:1039A0003800C0B24044827C3032D2B20021802044
:1039B000FCF7BEFD3800C0B2042802DB06208246B8
:1039C00008E03800C0B2022802DB0320824601E092
:1039D00000208246002006003000C0B298F81A107D
:1039E000491E884225DA00208146484698F8191079
:1039F000C0B288421BD2711CC9B298F8190000FBF2
:103A000007901AEB0000C0B2FCF768FC05002A0022
:103A1000D2B23100C9B298F8190000FB07901AEB36
:103A20000000C0B2FCF7BCFB19F10109DDE7761C10
:103A3000D2E700208146484698F81910C0B2884263
:103A400019D298F80300411EC9B2B9F18000C0B282
:103A5000FCF744FC05002A00D2B23100C9B298F844
:103A6000190000FB07901AEB0000C0B2FCF798FBAE
:103A700019F10109DFE77F1C81E798F803000928A5
:103A80000BD1002001F0CFFF002819D00020A8F8AA
:103A9000F0000020A8F8EE0012E098F803000A28D1
:103AA0000ED100210020FEF729FD012001F0BBFF0F
:103AB000002805D00020A8F8F0000020A8F8EE00AB
:103AC00069E3022000F0BAFE002840F0BC80DFF875
:103AD000D8060178012940F0808000210170002083
:103AE00088F8030098F8E80005280BDA98F8E83021
:103AF00018F1DE0200210020FDF776FA01210020F6
:103B0000FEF74FFD98F8E500002840F09C8098F8FB
:103B1000E400002818D198F8E30009280EDB98F893
:103B20001D0000280AD098F8E200002806D098F876
:103B3000E200062802DA062000F038FF98F8FF00BD
:103B400010F0DF0088F8FF0098F8E30098F8F21012
:103B5000884215D198F8E40098F8F31088420FD104
:103B600098F8F40001280BD198F8E20000280ED054
:103B700098F8E20006280ADA012088F8F50006E045
:103B800098F8F500012802D1002088F8F50098F88F
:103B9000E40005281CDB98F8FF00800618D498F88C
:103BA000DA00152814DB98F8FC00062807D098F8EE
:103BB000FC0064280CD198F80001002808D00020EF
:103BC00088F8FC0098F8FF0050F0040088F8FF0027
:103BD0000020DFF8C815087035E03221022000F01F
:103BE0003AFE98F80300401C88F8030098F8E800B3
:103BF000002828D198F81A0098F80310884222D299
:103C000098F8030009280BD1002001F00CFF0028D0
:103C100019D00020A8F8F0000020A8F8EE0012E06B
:103C200098F803000A280ED100210020FEF7B9FC05
:103C3000012001F0F8FE002805D00020A8F8F000CF
:103C40000020A8F8EE00A6E2022000F0F7FD002810
:103C500040F02F81DFF850050178012940F07E8087
:103C600000210170002088F8030098F8E500002882
:103C700064D198F8E400002818D198F8E3000928E6
:103C80000EDB98F81D0000280AD098F8E200002802
:103C900006D098F8E200062802DA062000F086FE38
:103CA00098F8FF0010F0DF0088F8FF0098F8E300B4
:103CB00098F8F210884215D198F8E40098F8F310BB
:103CC00088420FD198F8F40001280BD198F8E2004F
:103CD00000280ED098F8E20006280ADA012088F8B9
:103CE000F50006E098F8F500012802D1002088F8D8
:103CF000F50098F8E40005281CDB98F8FF00800622
:103D000018D498F8DA00152814DB98F8FC00062877
:103D100007D098F8FC0064280CD198F8000100281E
:103D200008D0002088F8FC0098F8FF0050F004004C
:103D300088F8FF000020DFF86414087098F8E83075
:103D400018F1DE0200210020FDF72EFD01210020E8
:103D5000FEF753FCADE000BF386C01085FF0000ACD
:103D60003221022000F077FD98F80300401C88F80B
:103D7000030098F80300092878DA002007003800CB
:103D8000C0B2042880F295803800C0B24044007B65
:103D90003900C9B24144897C884265D098F81B300B
:103DA0003800C0B24044827C3032D2B20021802040
:103DB000FCF7BEFB3800C0B2022802DB03208246BB
:103DC00001E000208246002006003000C0B298F8D2
:103DD0001A10491E884225DA00208146484698F884
:103DE0001910C0B288421BD2711CC9B298F81900D0
:103DF00000FB07901AEB0000C0B2FCF76FFA050059
:103E00002A00D2B23100C9B298F8190000FB07901D
:103E10001AEB0000C0B2FCF7C3F919F10109DDE7A4
:103E2000761CD2E700208146484698F81910C0B2A7
:103E3000884219D298F80300411EC9B2B9F1800036
:103E4000C0B2FCF74BFA05002A00D2B23100C9B269
:103E500098F8190000FB07901AEB0000C0B2FCF7BD
:103E60009FF919F10109DFE77F1C88E798F8030043
:103E700009280BD1002001F0D6FD002819D0002020
:103E8000A8F8F0000020A8F8EE0012E098F803006F
:103E90000A280ED100210020FEF7AFFB012001F01F
:103EA000C2FD002805D00020A8F8F0000020A8F8E6
:103EB000EE0070E1022000F0C1FC002840F0C78055
:103EC0001E21022000F0C7FC98F80300411C88F86E
:103ED0000310C0B232287DDB002088F8030098F878
:103EE000EA00401C88F8EA0098F8EA00092802D0A5
:103EF0000120FEF7EFFD98F8EA0001280ED0C0F08F
:103F0000A68003281CD012D305282AD020D3072846
:103F100039D030D3092856D03FD398E0B8F8EE30E6
:103F200098F8EA2000214020FCF77CFC8FE0B8F8EC
:103F3000F03098F8EA2000214020FCF773FC86E07E
:103F4000002398F8EA2000214020FCF76BFC7EE07B
:103F50009648038B98F8EA2000214020FCF762FC89
:103F600075E09248037C9BB298F8EA20002140203B
:103F7000FCF758FC6BE0002398F8EA200021402071
:103F8000FCF750FC63E08948C37B9BB298F8EA20B9
:103F900000214020FCF746FC59E098F8E500801C21
:103FA00088F8E50098F8E83018F1DE02002140209A
:103FB000FCF7BEFD98F8E500801E88F8E5000020BB
:103FC000FDF7D7FC43E00A2088F80400002088F8B9
:103FD000ED003CE098F80300092838DA00200600DC
:103FE0003000C0B207281ADA002081464846C0B225
:103FF000082812DA4846C0B208EBC0003100C9B246
:1040000008444946C9B208EBC1013200D2B211449A
:10401000C97F817719F10109E8E7761CE0E7002004
:1040200081464846C0B2082811DA4846C0B208EBBB
:10403000C00098F80310084490F85D004946C9B2E2
:1040400008EBC10181F8250019F10109E9E7A2E0B7
:1040500098F82601012864D1022000F0EFFB002827
:1040600040F098803221022000F0F5FB98F8030020
:10407000411C88F80310C0B2102807DB002088F824
:10408000030098F8050088F8040083E098F81A0007
:1040900098F80310884238D3002006003000C0B2E0
:1040A00007281ADA002081464846C0B2082812DAEA
:1040B0004846C0B208EBC0003100C9B208444946C6
:1040C000C9B208EBC1013200D2B21144C97F817775
:1040D00019F10109E8E7761CE0E70020814648462F
:1040E000C0B2082856DA4846C0B208EBC00098F8BB
:1040F0000310084490F85D004946C9B208EBC101BD
:1041000081F8250019F10109E9E798F8030008286A
:1041100040DA98F81A0008283CDA0220FEF7DAFCA8
:1041200038E0022000F08AFB002833D14FF4FA7106
:10413000022000F090FB1948017891F00101017014
:10414000007800280BD00020019098F81B00009008
:104150000223174A00210020FCF7DCFA0AE00020C5
:10416000019098F81B00009002230E4A00210020C5
:10417000FCF7D0FA202301220E4902A800F056FADB
:104180000120019000200090002302AA02210020BB
:10419000FCF7C0FAFFE706B0BDE8F087CE4B002081
:1041A000446C0108506C0108CD4B0020304B0020BE
:1041B0005C6C0108246A010810B50400002C01D1D0
:1041C00001205AE0606A002806D16068B0F5827F5D
:1041D00006D00020E06103E0002020610020606143
:1041E0000020A06294F85100002805D1002084F836
:1041F0005000200001F044FD022084F851002068A6
:10420000006830F0400021680860606810F4827037
:10421000A16811F404410843E16811F40061084306
:10422000217C11F002010843217D11F001010843B6
:10423000A16911F400710843217F11F0380108438E
:1042400094F8201011F080010843A16A11F4005184
:10425000084321680860A069000C10F00400216880
:1042600048602068C06930F400602168C86100209F
:104270006065012084F85100002010BD2DE9FC4745
:1042800006000D0017001C005FF0000896F85000B3
:10429000012801D10220D1E0012086F8500001F070
:1042A00067FD8146BA4696F85100012802D00220E7
:1042B0008046BEE0002D03D0380080B2002802D135
:1042C00001208046B5E0032086F85100002070658B
:1042D0003563B786F7860020B0630020B0870020E2
:1042E000F0870020706400203064B068B0F5004FA3
:1042F0000BD13068006830F04000316808603068E9
:10430000006850F4804031680860306800684006FA
:1043100005D43068006850F0400031680860F068EB
:10432000B0F5006F33D17068002803D0504680B2DA
:10433000012809D1306B00883168C860306B801C5F
:104340003063F08E401EF086F08E002853D0306827
:10435000806880070AD5306B00883168C860306B90
:10436000801C3063F08E401EF086EDE701F000FD0A
:10437000B0EB0900A04202D314F1010F01D1002CCF
:10438000E2D103208046012086F8510051E0706898
:10439000002803D0504680B2012809D1306B007844
:1043A00031680873306B401C3063F08E401EF0861D
:1043B000F08E00281FD03068806880070AD5306BE7
:1043C000007831680873306B401C3063F08E401EFB
:1043D000F086EDE701F0CCFCB0EB0900A04202D37F
:1043E00014F1010F01D1002CE2D1032080460120FD
:1043F00086F851001DE04A462100300000F08DF89B
:10440000002801D020207065B068002808D1002065
:1044100000903068C0680090306880680090009814
:10442000706D002802D00120804602E0012086F84D
:104430005100002086F850004046C0B2BDE8F68723
:104440002DE9FC4705000E0017009846DDF828907E
:1044500001F08EFC0400B8EB040419EB040401F035
:1044600087FC8246DFF8DC0000684001000D00FB9D
:1044700004F00090286880683040B04201D10120EB
:1044800000E000203900C9B2884243D018F1010F82
:10449000F0D001F06DFCB0EB0A00A04201D2002C7C
:1044A0002FD12868406830F0E000296848606868CB
:1044B000B0F5827F0DD1A868B0F5004F03D0A86891
:1044C000B0F5806F05D12868006830F04000296899
:1044D0000860A86AB0F5005F0BD12868006830F466
:1044E0000050296808602868006850F40050296866
:1044F0000860012085F85100002085F85000032055
:1045000009E00098002801D1002004000098401E16
:104510000090AFE70020BDE8F6877CB504000D00F1
:10452000160000962B00002280212000FFF788FF54
:10453000002805D0606D50F020006065032000E089
:10454000002076BD1800002062F30F2262F31F42A4
:10455000401810F0030308D0C91A1FD3DB0748BF67
:1045600000F8012D28BF20F8022D130030B41446A6
:104570001546103928BF20E93C00FAD8490728BF62
:1045800020E90C0048BF40F8042D890028BF20F81E
:10459000022D48BF00F8012D30BC7047C91818BF64
:1045A00000F8012DCB0728BF00F8012D7047F0B4AB
:1045B0000246106895681318506803EB5004C00752
:1045C00048BF4D44A3422DD013F8016B16F00300F1
:1045D00004BF13F8010BC01C31090F2907D113F8D0
:1045E000011B0F3103E013F8017B05F8017B401E2E
:1045F000F9D10029E6D013F8010BC6F38106032E8A
:1046000008BF13F8016B00EB062040422844002647
:10461000B71E8F421EBF10F8017B05F8017B761C88
:10462000F6D1CFE7F0BC02F10C0070470CB430B506
:1046300083B00A4606A9029104460025019400951C
:1046400002AB01A9084878441E3001F09AFB019A98
:10465000157000284EBF04460198041B204603B085
:1046600030BC5DF80CFB00BFC726000010B586B05B
:104670001021002202AC2000FFF766FF0821002273
:104680006C462000FFF760FFDFF834465FF08040A3
:104690002060472060600020A06040F2E730E060CA
:1046A000002020618020A061200002F045FB00284E
:1046B00001D003F090F84FF48050029002A920003E
:1046C00002F0D3FD002801D003F085F8002000900F
:1046D000002001906946200003F080F8002801D0F6
:1046E00003F079F8200002F05EFB06B010BD18B5AB
:1046F00089B0082100226C462000FFF725FF1C210D
:10470000002202AC2000FFF71FFFDFF8B845DFF8FA
:10471000B8052060472060600020A0604FF6FF7061
:10472000E060002020610020A061200002F074FB06
:10473000002801D003F04FF80020009000200190E5
:104740006946200003F04AF8002801D003F043F83E
:104750007020029000200390022004900020069018
:10476000082202A9200002F002FD002801D003F077
:1047700032F8200000F02FF80AB010BD1CB504007C
:104780002068B0F1804F12D1DFF84005016851F088
:1047900001010160006810F0010000900098002203
:1047A00000211C2003F0CFF81C2003F0E1F813BD1A
:1047B00081B00168DFF8102591420AD1DFF80C15AD
:1047C0000A6852F002020A60096811F002010091C1
:1047D000009901B0704730B585B004001021002267
:1047E00001AD2800FFF7B0FE2068DFF8DC14884236
:1047F00015D1DFF8DC04016851F0080101600068A0
:1048000010F0080000900098012001900220029012
:104810000220049001A9DFF8BC0403F0C7F805B03A
:1048200030BD0168DFF8A024914205D1DFF89C1467
:104830000A6832F002020A607047000001000800B6
:10484000C0B20A2801DB002004E0DFF88C04C9B202
:1048500030F8110070470200D2B2092A05DADFF8F9
:1048600078240300DBB222F81310704710B504005F
:10487000210089B20120FFF7EEFF0120FFF7DEFFE4
:104880000028FAD110BDF0B58DB004000D00102144
:10489000002202AF3800FFF757FE082100226F46C2
:1048A0003800FFF751FE1C21002206AF3800FFF749
:1048B0004BFE2000C0B200285AD0DFF80874380040
:1048C000FFF789FF3800FFF773FF280003F0C4F9F2
:1048D00002000B000020DFF8D01B03F0E1F903F029
:1048E00003FBDFF8C81B03F033FB0600DFF8D80337
:1048F0003860472078600020B860DFF8B41B3000D3
:1049000003F092FB03F042FCF860002038610020C5
:10491000B861380002F080FA002801D002F05BFF95
:1049200000200090002001906946380002F056FFF8
:10493000002801D002F04FFF7020069030005FF099
:10494000804103F02FFC03F021FC07900220089027
:1049500000200A90082206A9380002F008FC00286E
:1049600001D002F038FF0821380002F08CFA1BE079
:10497000DFF850730821380002F0EEFA3800FFF734
:1049800050FF012002900120039001200490032099
:104990000590DFF8C87B02A9380003F007F8012270
:1049A0000121380003F01EF90DB0F0BD0100C9B2BD
:1049B000082902DADFF8A81B0870704710B5C74C49
:1049C0002078082833D02078032804D1DFF8940B0E
:1049D000C069A06013E02078042804D1DFF8840BBC
:1049E000C06AA0600BE02078012804D1DFF8740BC6
:1049F000806BA06003E0DFF86C0B0069A06020789A
:104A000060700820207000206080DFF85C1B6278F6
:104A10000620424301EB02004078207120790028F3
:104A200002D00020E080BBE00120E080B8E0608898
:104A3000002840F0B2802079002800F0A380B4F96B
:104A40000600012801D1002000E00120E080B4F937
:104A50000600012840F08280607807281DD1207967
:104A6000032806D1DFF8FC0A016C0120FFF70BFFD9
:104A70006AE02079022806D1DFF8E80A416C0120BB
:104A8000FFF701FF60E0207901285DD1DFF8D40A4B
:104A9000816C0120FFF7F7FE56E0607806284FD1C1
:104AA0002079082806D1DFF8BC0AC1690120FFF788
:104AB000EAFE49E02079072806D1DFF8A80A016A52
:104AC0000120FFF7E0FE3FE02079062806D1DFF85D
:104AD000940A416A0120FFF7D6FE35E020790528C7
:104AE00006D1DFF8800A816A0120FFF7CCFE2BE0B7
:104AF0002079042806D1DFF86C0AC16A0120FFF78B
:104B0000C2FE21E02079032806D1DFF8580A016BA4
:104B10000120FFF7B8FE17E02079022806D1DFF860
:104B2000440A416B0120FFF7AEFE0DE02079012819
:104B30000AD1DFF8300A816B0120FFF7A4FE03E001
:104B4000A1680120FFF79FFEDFF81C1A627806209B
:104B5000424301EB0200408860800FE0002100200A
:104B6000FFF791FEDFF8001A62780620424301EB5E
:104B70000200007960802079401E20716088401E0C
:104B800060800DE0B4F90600012809D10021002061
:104B9000FFF779FE0020E08002E06088401E608020
:104BA00010BD70B50024DFF8C459287800282DD135
:104BB000484E0421300003F00AF800280BD10821E8
:104BC000300003F004F8002802D1042004001CE0A7
:104BD0000320040019E00421300002F0F8FF00284F
:104BE00002D10220040010E00821300002F0EFFFA3
:104BF00000280AD10221300002F0E9FF002802D18A
:104C00000420040001E0012004002C702878002812
:104C100034D0DFF85C090178491C0170DFF85419C1
:104C20002A780B789A4224D100222A700278062A28
:104C30001ADB0278072A12DB0278092A0EDB0278D7
:104C4000C92A0ADB092202700878DFF82C190870DB
:104C50000120DFF8281908701EE01DE01CE008782C
:104C6000DFF81419087017E00020DFF81019087039
:104C700012E02A780A70002101700DE00020DFF8B0
:104C8000F41808700020DFF8F4180870002028706D
:104C90000020DFF8DC18087070BD0020DFF8D8189D
:104CA00008707047DFF8D0080078704780B5FFF7CC
:104CB000F9FF0021DFF8C0281170C0B202BD00006A
:104CC000D44700201C480020000400401C10024073
:104CD00018100240000C0140844B0020A84B00201B
:104CE0007CB50026FFF7DEFF002800F0DC83DFF84C
:104CF000905895F8F500012808D1002085F8F500B6
:104D0000FFF7CBFF4FF4FA70FFF7B0FD28790928C1
:104D100007DAFFF7C2FF0220FFF748FE0A202871DA
:104D2000C1E3FFF7C3FF04000320FFF73FFE2000AD
:104D3000C0B201280AD0C0F0B683032800F0748204
:104D4000C0F08581042800F04E81ACE32879092861
:104D500040F0F88095F8E80000280CD195F8E900BB
:104D6000022805DB95F8E900401E85F8E90002E01D
:104D7000042085F8E90095F8E800012814D0C0F077
:104D80003181032834D021D305284BD038D30728CC
:104D90006FD05CD3092800F0A1807CD30B2800F0F1
:104DA000C180C0F0AD801DE195F8E90001280CD16B
:104DB00095F8E300002805D095F8E300401E85F83B
:104DC000E30002E0172085F8E3000BE195F8E90025
:104DD00001280CD195F8E400002805D095F8E400EE
:104DE000401E85F8E40002E03B2085F8E400F9E08D
:104DF00095F8E900012802D1002085F8E500F1E0EE
:104E000095F8E90001280CD195F8E200002805D0BA
:104E100095F8E200401E85F8E20002E0062085F8E1
:104E2000E200DFE095F8E90002280FD1B5F8DE00D6
:104E300040F2D171884205DBB5F8DE00401EA5F8CE
:104E4000DE0003E040F63300A5F8DE00CAE095F886
:104E5000E90002280CD195F8E000022805DB95F85E
:104E6000E000401E85F8E00002E00C2085F8E0003C
:104E7000B8E095F8E90002280CD195F8E100022885
:104E800005DB95F8E100401E85F8E10002E01F20F7
:104E900085F8E100A6E095F8E90004281DD1E87E38
:104EA000002802D10220E87602E0E87E401EE87683
:104EB000E87EDFF8D01681F8E90303F0F2FA022069
:104EC000FDF708FE00200190E87E00900223DFF845
:104ED000B82600210020FBF71DFC83E095F8E900CF
:104EE00003280CD195F8F200022805DB95F8F200B2
:104EF000401E85F8F20002E0172085F8F20071E00C
:104F000095F8E90003280CD195F8F300022805DB99
:104F100095F8F300401E85F8F30002E03B2085F889
:104F2000F3005FE095F8E90003280AD195F8F40052
:104F3000012803D1002085F8F40002E0012085F863
:104F4000F4004FE095F8E80000284BD10220FDF76F
:104F5000C1FD28790A2811D10B20687115F1DE06F0
:104F600095F8E830320000210020FBF7E1FD002336
:104F7000320000214020FCF737F828E028790B2880
:104F800011D10C20687115F1DE06002332000021DA
:104F90000020FCF729F895F8E83032000021402085
:104FA000FCF702FC13E028790C2810D10A20687164
:104FB00015F1DE060023320000210020FCF7F4FB8F
:104FC00095F8E830320000214020FBF7B1FD687908
:104FD000DFF8B01581F8E80303F063FA06202871C2
:104FE0000020E8705FE295F8E800002806D0002075
:104FF00085F8E8000020FDF76DFD23E095F8E90055
:1050000000281CD0002085F8E9006879287102206A
:10501000FDF760FD28790A2807D1002315F1DE028B
:1050200000210020FBF784FD06E0002315F1DE02DD
:1050300000210020FBF7D8FFFFF72FFE02E002203F
:10504000FFF7B4FC4FF4FA70FFF710FC2BE2DFF827
:105050002C653078002840F0878028790A2806DA05
:1050600028790D2803DB0220FFF7A0FC1BE295F84E
:10507000E900002806D0022831D01CD304285ED0D5
:1050800045D3D0E028796871012085F8E900002037
:1050900085F8E800092028710020FDF71BFD00209D
:1050A0000190E87E00900223DFF8E0240021002038
:1050B000FBF730FBB7E095F8E800002802D10020AC
:1050C000FDF708FD95F8E800401C85F8E80095F824
:1050D000E800042802DB012085F8E800A3E095F849
:1050E000E800052806DA0020FDF7F4FC052085F825
:1050F000E8000BE095F8E800401C85F8E80095F81A
:10510000E800082802DB052085F8E8008BE095F828
:10511000E800092806DA0020FDF7DCFC092085F804
:10512000E8000BE095F8E800401C85F8E80095F8E9
:10513000E8000C2802DB092085F8E80073E06879B4
:105140000A2802D068790C280AD195F8E8000828C6
:1051500002DA082085F8E8000020FDF7BBFC02E039
:105160000220FFF723FC5EE0307800285BD00120AE
:10517000FFF71CFC6879287130780028FCD1FFF714
:105180008CFD4FF4FA70FFF771FB0220FDF7A2FCD3
:1051900028790A2807D1002315F1DE02002100201A
:1051A000FBF7C6FC14E028790B2807D1002315F182
:1051B000DE0200210020FBF717FF09E028790C2808
:1051C00006D1002315F1DE0200210020FCF7ECFAE5
:1051D00095F8E800082805DA002115F1DE0000F056
:1051E0006EFB17E095F8E800092813DB95F8E80056
:1051F0000C280FDADFF88C0395F8F21080F8EA1328
:1052000095F8F31080F8EB1395F8F41080F8EC1390
:1052100003F047F9642085F8DC00002085F8E900F8
:10522000002085F8E8003EE12879092840F0F48064
:1052300095F8E80000280BD195F8E900401C85F8A6
:10524000E90095F8E900052802DB012085F8E9006E
:1052500095F8E800012814D0C0F0DD80032834D090
:1052600021D305284BD038D307286FD05CD3092829
:1052700000F09E807CD30B2800F0BE80C0F0AA8096
:10528000C9E095F8E90001280CD195F8E30017284A
:1052900005DA95F8E300401C85F8E30002E0002001
:1052A00085F8E300B7E095F8E90001280CD195F8FE
:1052B000E4003B2805DA95F8E400401C85F8E4009A
:1052C00002E0002085F8E400A5E095F8E900012857
:1052D00002D1002085F8E5009DE095F8E90001285D
:1052E0000CD195F8E200062805DA95F8E200401C9A
:1052F00085F8E20002E0002085F8E2008BE095F8F6
:10530000E90002280FD1B5F8DE0040F633018842EB
:1053100005DAB5F8DE00401CA5F8DE0003E04FF426
:10532000FA60A5F8DE0076E095F8E90002280CD1D5
:1053300095F8E0000C2805DA95F8E000401C85F8A7
:10534000E00002E0012085F8E00064E095F8E90063
:1053500002280CD195F8E1001F2805DA95F8E10044
:10536000401C85F8E10002E0012085F8E10052E0F0
:1053700095F8E90004281AD1E87E401CE876E87E1A
:10538000032801DB0020E876E87E7E4981F8E90306
:1053900003F087F80220FDF79DFB00200190E87ED6
:1053A00000900223784A00210020FBF7B3F932E095
:1053B00095F8E90003280CD195F8F200172805DAD2
:1053C00095F8F200401C85F8F20002E0002085F814
:1053D000F20020E095F8E90003280CD195F8F300DD
:1053E0003B2805DA95F8F300401C85F8F30002E04D
:1053F000002085F8F3000EE095F8E90003280AD1B3
:1054000095F8F400012803D1002085F8F40002E0AB
:10541000012085F8F40046E095F8E800002842D124
:105420000220FDF757FB2879687128790A2810D1E6
:1054300015F1DE0695F8E830320000210020FBF778
:1054400077FB95F8E830320000214020FCF74DFE54
:1054500025E028790B280FD1002315F1DE02002169
:105460000020FBF7C1FDB5F8F030B5F8EE200021C3
:105470004020FBF7ACFA12E028790C280FD115F187
:10548000DE0695F8E830320000210020FCF78CF9A8
:1054900095F8E830320000214020FCF726FE02207B
:1054A00028710020E87073BD0000F03F00247449AB
:1054B000000080BF70B50400206835490968884243
:1054C0004BD1344801784A1C0270C9B2022903DB6F
:1054D00000210170FFF765FB002005002800C0B225
:1054E000092811DA2C492800C0B231F81000002830
:1054F00008D02800C0B231F81000401E2A00D2B2F5
:1055000021F812006D1CE9E7FFF758FA1C4E70787D
:1055100001280AD1214801784A1C0270C9B2142915
:1055200003DB00210170FAF7EAFD1D4801784A1CEF
:105530000270C9B2052910DB00210170B078012882
:105540000BD1184E307802F0FCFF3078401C3070E0
:105550003078082801DB0020307070BD000C01405D
:10556000A84B00201C00002074650108D14B0020CE
:10557000CF4B0020D04B0020D24B0020D34B00203B
:10558000EC440020EC340020686C0108746C0108C5
:10559000D4470020D44B0020844B0020D54B002062
:1055A000D64B0020D74B002062B38B0708D0521E89
:1055B00011F8013B00F8013B00F024808B07F6D185
:1055C000830740F0208000BF103A07D330B4B1E821
:1055D0003810103AA0E83810F9D230BC530724BF75
:1055E000B1E80810A0E8081044BF51F8043B40F8A7
:1055F000043BD20724BF31F8022B20F8022B44BF12
:105600000B7803707047121F17D35B0009D151F854
:10561000043B20F8023B1B0C121F20F8023BF6D281
:105620000BE051F8043B00F8013B1B0A20F8023B59
:105630001B0C121F00F8013BF3D238BF121D521E83
:1056400024BF11F8013B00F8013BF8D87047B1F5D1
:10565000807F02D34FF0FF30704701700120704708
:105660000078401E8041C043C00F70471CB5032125
:10567000002201AC2000FEF767FF042100226C46E7
:105680002000FEF761FFBE4CBE4820605FF0FF3097
:1056900060600020A060200003F014FB002801D00F
:1056A00002F099F80C208DF8040000208DF8050018
:1056B00000208DF80600002201A9200003F067FBFE
:1056C000002801D002F087F802208DF800000820A1
:1056D0008DF8010008208DF8020017208DF80300D6
:1056E00000226946200003F046FC002801D002F0A9
:1056F00072F8200003F09EFE13BD1CB50400206864
:10570000A049884216D103F0D3FE9F48016851F0AA
:1057100000610160006810F00060009000980120B6
:105720009A49086000220021032002F00CF90320AE
:1057300002F01EF913BD01000800C0B2002805D018
:105740000800C0B21F2801DA01200BE00800C0B237
:105750001F2806DB0800C0B23C2802DA5FF0FF30E9
:1057600000E0002070471CB5894C94F8E800002840
:1057700040F0A38094F8DB00012840F09E800020D8
:1057800084F8DB00012084F8D600002269467C48BA
:1057900003F069FB9DF8000084F8E3009DF8010028
:1057A00084F8E4009DF8020084F8E50094F8F50020
:1057B000012802D10720FFF7F9F894F8DC003D2812
:1057C00008DB94F8E50084F8DC0094F8E40084F841
:1057D000DD0070E094F8DC003B2844D194F8E5004B
:1057E000002808D194F8E50084F8DC0094F8E4007F
:1057F00084F8DD005FE094F8E500FFF79CFF0128E6
:105800000BDB002084F8E50094F8E50084F8DC0068
:1058100094F8E40084F8DD004DE0002084F8E50011
:1058200094F8E4003B2810DB002084F8E40094F8AE
:10583000E300172803DB002084F8E3000AE094F873
:10584000E300401C84F8E30004E094F8E400401C0A
:1058500084F8E40094F8E50084F8DC0094F8E400AF
:1058600084F8DD0027E094F8DC003B2823DA94F884
:10587000E40094F8DD10884215D194F8E50094F81E
:10588000DC10491C884204D194F8E50084F8DC005F
:1058900011E094F8DC00401C84F8E50094F8E50081
:1058A00084F8DC0007E094F8E50084F8DC0094F864
:1058B000E40084F8DD00012000E0002016BD7CB586
:1058C00004000D0060798DF80000A0798DF80100CA
:1058D000E0798DF8020020798DF80400A0788DF829
:1058E0000500E0788DF80600208830308DF807003C
:1058F0009DF80200392808DA2800C0B2042804DA2A
:105900009DF8020028188DF802001D4E00226946FD
:10591000300003F03CFA002801D001F05CFF0022C7
:1059200001A9300003F027FB002801D001F053FF4C
:1059300073BD3EB50400124D002201A9280003F0FA
:1059400092FA9DF8040060719DF80500A0719DF821
:105950000600E07100226946280003F07FFB9DF8F5
:10596000000020719DF80100A0709DF80200E07019
:105970009DF8030010F5FA60208037BD000000009C
:10598000704B0020002800401C1002403C044242A2
:10599000EC44002080B5884888490160884941600E
:1059A000002181600021C1604FF48041016100212C
:1059B0004161002181610021C1610021016203F088
:1059C0007DFD002801D001F006FF01BD30B585B096
:1059D00004001021002201AD2800FEF7B5FD20686B
:1059E000764988421DD17748016851F0080101606D
:1059F000006810F0080000900098C020019012206C
:105A000002900320049001A96F4801F0CFFF6F4876
:105A1000016851F400110160006810F4001000905A
:105A2000009805B030BD2DE9FE4F04002000C0B243
:105A3000002813D1604D64200090002301AA50215A
:105A4000280003F024FE002806D0280004F094F873
:105A5000042801D00120ACE00020AAE02000C0B260
:105A6000012840F07F80544D64200090042301AA57
:105A70005021280003F0C0FE002806D0280004F0C2
:105A80007BF8042801D0022093E09DF8040004F084
:105A900019FB070001AD687804F014FB06005FF005
:105AA0008741380002F054FA02F0D6F8484A494BD0
:105AB00002F0F6F802F018FA0700300002F0CCF815
:105AC000434A444B02F0ECF802F00EFA06003800AC
:105AD000310002F0A9FA404902F0A6FA01003F4F56
